20190913-14:42:44.685333000 : 8=FIX.4.4|9=123|35=A|49=T1DEMO_FIX|56=FIXUAT3-TRADE.FORTEX.COM|34=1|52=20190913-14:42:44.683|98=0|108=30|141=Y|553=T1DEMO_FIX|554=ABCD1234|10=133|
20190913-14:42:45.017650000 : 8=FIX.4.4|9=324|35=A|34=1|49=FIXUAT3-TRADE.FORTEX.COM|52=20190913-14:42:44.908|56=T1DEMO_FIX|98=0|108=30|384=19|372=0|385=S|372=0|385=R|372=1|385=S|372=1|385=R|372=2|385=S|372=2|385=R|372=3|385=S|372=3|385=R|372=4|385=S|372=4|385=R|372=A|385=S|372=A|385=R|372=5|385=R|372=5|385=S|372=j|385=S|372=D|385=R|372=F|385=R|372=8|385=S|372=9|385=S|10=052|
20190913-14:43:14.313847000 : 8=FIX.4.4|9=77|35=0|49=T1DEMO_FIX|56=FIXUAT3-TRADE.FORTEX.COM|34=2|52=20190913-14:43:14.313|10=128|
20190913-14:43:15.752433000 : 8=FIX.4.4|9=77|35=0|34=2|49=FIXUAT3-TRADE.FORTEX.COM|52=20190913-14:43:15.599|56=T1DEMO_FIX|10=145|
20190913-14:43:44.098792000 : 8=FIX.4.4|9=77|35=0|49=T1DEMO_FIX|56=FIXUAT3-TRADE.FORTEX.COM|34=3|52=20190913-14:43:44.098|10=142|
20190913-14:43:45.702001000 : 8=FIX.4.4|9=77|35=0|34=3|49=FIXUAT3-TRADE.FORTEX.COM|52=20190913-14:43:45.598|56=T1DEMO_FIX|10=148|
20190913-14:44:14.941490000 : 8=FIX.4.4|9=77|35=0|49=T1DEMO_FIX|56=FIXUAT3-TRADE.FORTEX.COM|34=4|52=20190913-14:44:14.941|10=138|
20190913-14:44:15.697835000 : 8=FIX.4.4|9=77|35=0|34=4|49=FIXUAT3-TRADE.FORTEX.COM|52=20190913-14:44:15.598|56=T1DEMO_FIX|10=147|
20190913-14:44:44.001675000 : 8=FIX.4.4|9=77|35=0|49=T1DEMO_FIX|56=FIXUAT3-TRADE.FORTEX.COM|34=5|52=20190913-14:44:44.001|10=129|
20190913-14:44:45.693534000 : 8=FIX.4.4|9=77|35=0|34=5|49=FIXUAT3-TRADE.FORTEX.COM|52=20190913-14:44:45.598|56=T1DEMO_FIX|10=151|
20190913-14:45:14.375080000 : 8=FIX.4.4|9=77|35=0|49=T1DEMO_FIX|56=FIXUAT3-TRADE.FORTEX.COM|34=6|52=20190913-14:45:14.374|10=141|
20190913-14:45:15.688353000 : 8=FIX.4.4|9=77|35=0|34=6|49=FIXUAT3-TRADE.FORTEX.COM|52=20190913-14:45:15.598|56=T1DEMO_FIX|10=150|
20190913-14:45:44.139373000 : 8=FIX.4.4|9=77|35=0|49=T1DEMO_FIX|56=FIXUAT3-TRADE.FORTEX.COM|34=7|52=20190913-14:45:44.139|10=144|
20190913-14:45:45.687702000 : 8=FIX.4.4|9=77|35=0|34=7|49=FIXUAT3-TRADE.FORTEX.COM|52=20190913-14:45:45.598|56=T1DEMO_FIX|10=154|
20190913-14:46:14.169131000 : 8=FIX.4.4|9=77|35=0|49=T1DEMO_FIX|56=FIXUAT3-TRADE.FORTEX.COM|34=8|52=20190913-14:46:14.169|10=146|
20190913-14:46:15.688604000 : 8=FIX.4.4|9=77|35=0|34=8|49=FIXUAT3-TRADE.FORTEX.COM|52=20190913-14:46:15.598|56=T1DEMO_FIX|10=153|
20190913-14:46:44.235853000 : 8=FIX.4.4|9=77|35=0|49=T1DEMO_FIX|56=FIXUAT3-TRADE.FORTEX.COM|34=9|52=20190913-14:46:44.235|10=144|
20190913-14:46:45.688351000 : 8=FIX.4.4|9=77|35=0|34=9|49=FIXUAT3-TRADE.FORTEX.COM|52=20190913-14:46:45.598|56=T1DEMO_FIX|10=157|
20190913-14:47:14.082554000 : 8=FIX.4.4|9=78|35=0|49=T1DEMO_FIX|56=FIXUAT3-TRADE.FORTEX.COM|34=10|52=20190913-14:47:14.007|10=180|
20190913-14:47:15.689242000 : 8=FIX.4.4|9=78|35=0|34=10|49=FIXUAT3-TRADE.FORTEX.COM|52=20190913-14:47:15.598|56=T1DEMO_FIX|10=196|
20190913-14:47:44.500339000 : 8=FIX.4.4|9=78|35=0|49=T1DEMO_FIX|56=FIXUAT3-TRADE.FORTEX.COM|34=11|52=20190913-14:47:44.500|10=182|
20190913-14:47:45.688461000 : 8=FIX.4.4|9=78|35=0|34=11|49=FIXUAT3-TRADE.FORTEX.COM|52=20190913-14:47:45.598|56=T1DEMO_FIX|10=200|
20190913-14:48:14.172211000 : 8=FIX.4.4|9=78|35=0|49=T1DEMO_FIX|56=FIXUAT3-TRADE.FORTEX.COM|34=12|52=20190913-14:48:14.172|10=186|
20190913-14:48:15.688145000 : 8=FIX.4.4|9=78|35=0|34=12|49=FIXUAT3-TRADE.FORTEX.COM|52=20190913-14:48:15.599|56=T1DEMO_FIX|10=200|
20190913-14:48:44.435835000 : 8=FIX.4.4|9=78|35=0|49=T1DEMO_FIX|56=FIXUAT3-TRADE.FORTEX.COM|34=13|52=20190913-14:48:44.420|10=186|
20190913-14:48:45.763993000 : 8=FIX.4.4|9=78|35=0|34=13|49=FIXUAT3-TRADE.FORTEX.COM|52=20190913-14:48:45.598|56=T1DEMO_FIX|10=203|
20190913-14:49:14.318688000 : 8=FIX.4.4|9=78|35=0|49=T1DEMO_FIX|56=FIXUAT3-TRADE.FORTEX.COM|34=14|52=20190913-14:49:14.317|10=190|
20190913-14:49:15.688640000 : 8=FIX.4.4|9=78|35=0|34=14|49=FIXUAT3-TRADE.FORTEX.COM|52=20190913-14:49:15.599|56=T1DEMO_FIX|10=203|
20190913-14:49:44.395462000 : 8=FIX.4.4|9=78|35=0|49=T1DEMO_FIX|56=FIXUAT3-TRADE.FORTEX.COM|34=15|52=20190913-14:49:44.395|10=200|
20190913-14:49:45.703068000 : 8=FIX.4.4|9=78|35=0|34=15|49=FIXUAT3-TRADE.FORTEX.COM|52=20190913-14:49:45.598|56=T1DEMO_FIX|10=206|
20190913-14:50:14.063656000 : 8=FIX.4.4|9=78|35=0|49=T1DEMO_FIX|56=FIXUAT3-TRADE.FORTEX.COM|34=16|52=20190913-14:50:14.063|10=182|
20190913-14:50:15.699269000 : 8=FIX.4.4|9=78|35=0|34=16|49=FIXUAT3-TRADE.FORTEX.COM|52=20190913-14:50:15.598|56=T1DEMO_FIX|10=196|
20190913-14:50:44.111590000 : 8=FIX.4.4|9=78|35=0|49=T1DEMO_FIX|56=FIXUAT3-TRADE.FORTEX.COM|34=17|52=20190913-14:50:44.111|10=180|
20190913-14:50:45.688593000 : 8=FIX.4.4|9=78|35=0|34=17|49=FIXUAT3-TRADE.FORTEX.COM|52=20190913-14:50:45.598|56=T1DEMO_FIX|10=200|
20190913-14:51:14.151094000 : 8=FIX.4.4|9=78|35=0|49=T1DEMO_FIX|56=FIXUAT3-TRADE.FORTEX.COM|34=18|52=20190913-14:51:14.150|10=182|
20190913-14:51:15.689089000 : 8=FIX.4.4|9=78|35=0|34=18|49=FIXUAT3-TRADE.FORTEX.COM|52=20190913-14:51:15.598|56=T1DEMO_FIX|10=199|
20190913-14:51:44.307552000 : 8=FIX.4.4|9=78|35=0|49=T1DEMO_FIX|56=FIXUAT3-TRADE.FORTEX.COM|34=19|52=20190913-14:51:44.307|10=190|
20190913-14:51:45.702405000 : 8=FIX.4.4|9=78|35=0|34=19|49=FIXUAT3-TRADE.FORTEX.COM|52=20190913-14:51:45.599|56=T1DEMO_FIX|10=204|
20190913-14:52:14.219230000 : 8=FIX.4.4|9=78|35=0|49=T1DEMO_FIX|56=FIXUAT3-TRADE.FORTEX.COM|34=20|52=20190913-14:52:14.219|10=182|
20190913-14:52:15.690780000 : 8=FIX.4.4|9=78|35=0|34=20|49=FIXUAT3-TRADE.FORTEX.COM|52=20190913-14:52:15.599|56=T1DEMO_FIX|10=194|
20190913-14:52:44.070657000 : 8=FIX.4.4|9=78|35=0|49=T1DEMO_FIX|56=FIXUAT3-TRADE.FORTEX.COM|34=21|52=20190913-14:52:44.070|10=181|
20190913-14:52:45.689122000 : 8=FIX.4.4|9=78|35=0|34=21|49=FIXUAT3-TRADE.FORTEX.COM|52=20190913-14:52:45.598|56=T1DEMO_FIX|10=197|
20190913-14:53:14.096151000 : 8=FIX.4.4|9=78|35=0|49=T1DEMO_FIX|56=FIXUAT3-TRADE.FORTEX.COM|34=22|52=20190913-14:53:14.024|10=179|
20190913-14:53:15.706338000 : 8=FIX.4.4|9=78|35=0|34=22|49=FIXUAT3-TRADE.FORTEX.COM|52=20190913-14:53:15.599|56=T1DEMO_FIX|10=197|
20190913-14:53:44.278244000 : 8=FIX.4.4|9=78|35=0|49=T1DEMO_FIX|56=FIXUAT3-TRADE.FORTEX.COM|34=23|52=20190913-14:53:44.278|10=194|
20190913-14:53:45.688813000 : 8=FIX.4.4|9=78|35=0|34=23|49=FIXUAT3-TRADE.FORTEX.COM|52=20190913-14:53:45.598|56=T1DEMO_FIX|10=200|
20190913-14:54:14.291965000 : 8=FIX.4.4|9=78|35=0|49=T1DEMO_FIX|56=FIXUAT3-TRADE.FORTEX.COM|34=24|52=20190913-14:54:14.290|10=187|
20190913-14:54:15.818753000 : 8=FIX.4.4|9=78|35=0|34=24|49=FIXUAT3-TRADE.FORTEX.COM|52=20190913-14:54:15.599|56=T1DEMO_FIX|10=200|
20190913-14:54:44.446786000 : 8=FIX.4.4|9=78|35=0|49=T1DEMO_FIX|56=FIXUAT3-TRADE.FORTEX.COM|34=25|52=20190913-14:54:44.446|10=194|
20190913-14:54:45.689150000 : 8=FIX.4.4|9=78|35=0|34=25|49=FIXUAT3-TRADE.FORTEX.COM|52=20190913-14:54:45.598|56=T1DEMO_FIX|10=203|
20190913-14:55:14.381998000 : 8=FIX.4.4|9=78|35=0|49=T1DEMO_FIX|56=FIXUAT3-TRADE.FORTEX.COM|34=26|52=20190913-14:55:14.379|10=198|
20190913-14:55:15.689477000 : 8=FIX.4.4|9=78|35=0|34=26|49=FIXUAT3-TRADE.FORTEX.COM|52=20190913-14:55:15.598|56=T1DEMO_FIX|10=202|
20190913-14:55:44.425681000 : 8=FIX.4.4|9=78|35=0|49=T1DEMO_FIX|56=FIXUAT3-TRADE.FORTEX.COM|34=27|52=20190913-14:55:44.425|10=194|
20190913-14:55:45.688785000 : 8=FIX.4.4|9=78|35=0|34=27|49=FIXUAT3-TRADE.FORTEX.COM|52=20190913-14:55:45.598|56=T1DEMO_FIX|10=206|
20190913-14:56:14.921819000 : 8=FIX.4.4|9=78|35=0|49=T1DEMO_FIX|56=FIXUAT3-TRADE.FORTEX.COM|34=28|52=20190913-14:56:14.655|10=198|
20190913-14:56:15.690295000 : 8=FIX.4.4|9=78|35=0|34=28|49=FIXUAT3-TRADE.FORTEX.COM|52=20190913-14:56:15.598|56=T1DEMO_FIX|10=205|
20190913-14:56:44.371704000 : 8=FIX.4.4|9=78|35=0|49=T1DEMO_FIX|56=FIXUAT3-TRADE.FORTEX.COM|34=29|52=20190913-14:56:44.371|10=197|
20190913-14:56:45.705493000 : 8=FIX.4.4|9=78|35=0|34=29|49=FIXUAT3-TRADE.FORTEX.COM|52=20190913-14:56:45.598|56=T1DEMO_FIX|10=209|
20190913-14:57:14.353507000 : 8=FIX.4.4|9=78|35=0|49=T1DEMO_FIX|56=FIXUAT3-TRADE.FORTEX.COM|34=30|52=20190913-14:57:14.353|10=187|
20190913-14:57:15.696881000 : 8=FIX.4.4|9=78|35=0|34=30|49=FIXUAT3-TRADE.FORTEX.COM|52=20190913-14:57:15.599|56=T1DEMO_FIX|10=200|
20190913-14:57:44.489142000 : 8=FIX.4.4|9=78|35=0|49=T1DEMO_FIX|56=FIXUAT3-TRADE.FORTEX.COM|34=31|52=20190913-14:57:44.488|10=200|
20190913-14:57:45.689491000 : 8=FIX.4.4|9=78|35=0|34=31|49=FIXUAT3-TRADE.FORTEX.COM|52=20190913-14:57:45.598|56=T1DEMO_FIX|10=203|
20190913-14:58:14.133012000 : 8=FIX.4.4|9=78|35=0|49=T1DEMO_FIX|56=FIXUAT3-TRADE.FORTEX.COM|34=32|52=20190913-14:58:14.129|10=191|
20190913-14:58:15.689566000 : 8=FIX.4.4|9=78|35=0|34=32|49=FIXUAT3-TRADE.FORTEX.COM|52=20190913-14:58:15.598|56=T1DEMO_FIX|10=202|
20190913-14:58:44.385825000 : 8=FIX.4.4|9=78|35=0|49=T1DEMO_FIX|56=FIXUAT3-TRADE.FORTEX.COM|34=33|52=20190913-14:58:44.385|10=199|
20190913-14:58:45.690572000 : 8=FIX.4.4|9=78|35=0|34=33|49=FIXUAT3-TRADE.FORTEX.COM|52=20190913-14:58:45.599|56=T1DEMO_FIX|10=207|
20190913-14:59:14.072914000 : 8=FIX.4.4|9=78|35=0|49=T1DEMO_FIX|56=FIXUAT3-TRADE.FORTEX.COM|34=34|52=20190913-14:59:14.072|10=191|
20190913-14:59:15.690160000 : 8=FIX.4.4|9=78|35=0|34=34|49=FIXUAT3-TRADE.FORTEX.COM|52=20190913-14:59:15.598|56=T1DEMO_FIX|10=205|
20190913-14:59:44.050220000 : 8=FIX.4.4|9=78|35=0|49=T1DEMO_FIX|56=FIXUAT3-TRADE.FORTEX.COM|34=35|52=20190913-14:59:44.048|10=198|
20190913-14:59:45.700802000 : 8=FIX.4.4|9=78|35=0|34=35|49=FIXUAT3-TRADE.FORTEX.COM|52=20190913-14:59:45.599|56=T1DEMO_FIX|10=210|
20190913-15:00:14.203341000 : 8=FIX.4.4|9=78|35=0|49=T1DEMO_FIX|56=FIXUAT3-TRADE.FORTEX.COM|34=36|52=20190913-15:00:14.202|10=175|
20190913-15:00:15.705097000 : 8=FIX.4.4|9=78|35=0|34=36|49=FIXUAT3-TRADE.FORTEX.COM|52=20190913-15:00:15.598|56=T1DEMO_FIX|10=194|
20190913-15:00:44.154383000 : 8=FIX.4.4|9=78|35=0|49=T1DEMO_FIX|56=FIXUAT3-TRADE.FORTEX.COM|34=37|52=20190913-15:00:44.152|10=183|
20190913-15:00:45.705215000 : 8=FIX.4.4|9=78|35=0|34=37|49=FIXUAT3-TRADE.FORTEX.COM|52=20190913-15:00:45.598|56=T1DEMO_FIX|10=198|
20190913-15:01:14.486066000 : 8=FIX.4.4|9=78|35=0|49=T1DEMO_FIX|56=FIXUAT3-TRADE.FORTEX.COM|34=38|52=20190913-15:01:14.485|10=191|
20190913-15:01:15.703526000 : 8=FIX.4.4|9=78|35=0|34=38|49=FIXUAT3-TRADE.FORTEX.COM|52=20190913-15:01:15.598|56=T1DEMO_FIX|10=197|
20190913-15:01:44.162615000 : 8=FIX.4.4|9=78|35=0|49=T1DEMO_FIX|56=FIXUAT3-TRADE.FORTEX.COM|34=39|52=20190913-15:01:44.158|10=192|
20190913-15:01:45.691489000 : 8=FIX.4.4|9=78|35=0|34=39|49=FIXUAT3-TRADE.FORTEX.COM|52=20190913-15:01:45.598|56=T1DEMO_FIX|10=201|
20190913-15:02:14.004521000 : 8=FIX.4.4|9=78|35=0|49=T1DEMO_FIX|56=FIXUAT3-TRADE.FORTEX.COM|34=40|52=20190913-15:02:14.004|10=172|
20190913-15:02:15.689482000 : 8=FIX.4.4|9=78|35=0|34=40|49=FIXUAT3-TRADE.FORTEX.COM|52=20190913-15:02:15.599|56=T1DEMO_FIX|10=192|
20190913-15:02:44.585012000 : 8=FIX.4.4|9=78|35=0|49=T1DEMO_FIX|56=FIXUAT3-TRADE.FORTEX.COM|34=41|52=20190913-15:02:44.005|10=177|
20190913-15:02:45.690199000 : 8=FIX.4.4|9=78|35=0|34=41|49=FIXUAT3-TRADE.FORTEX.COM|52=20190913-15:02:45.599|56=T1DEMO_FIX|10=196|
20190913-15:03:15.039679000 : 8=FIX.4.4|9=78|35=0|49=T1DEMO_FIX|56=FIXUAT3-TRADE.FORTEX.COM|34=42|52=20190913-15:03:15.039|10=184|
20190913-15:03:15.690019000 : 8=FIX.4.4|9=78|35=0|34=42|49=FIXUAT3-TRADE.FORTEX.COM|52=20190913-15:03:15.598|56=T1DEMO_FIX|10=194|
20190913-15:03:46.186074000 : 8=FIX.4.4|9=78|35=0|49=T1DEMO_FIX|56=FIXUAT3-TRADE.FORTEX.COM|34=43|52=20190913-15:03:45.675|10=194|
20190913-15:03:46.186262000 : 8=FIX.4.4|9=78|35=0|34=43|49=FIXUAT3-TRADE.FORTEX.COM|52=20190913-15:03:45.598|56=T1DEMO_FIX|10=198|
20190913-15:04:15.699684000 : 8=FIX.4.4|9=78|35=0|34=44|49=FIXUAT3-TRADE.FORTEX.COM|52=20190913-15:04:15.599|56=T1DEMO_FIX|10=198|
20190913-15:04:15.700563000 : 8=FIX.4.4|9=78|35=0|49=T1DEMO_FIX|56=FIXUAT3-TRADE.FORTEX.COM|34=44|52=20190913-15:04:15.700|10=182|
20190913-15:04:45.342292000 : 8=FIX.4.4|9=78|35=0|49=T1DEMO_FIX|56=FIXUAT3-TRADE.FORTEX.COM|34=45|52=20190913-15:04:45.336|10=191|
20190913-15:04:45.723445000 : 8=FIX.4.4|9=78|35=0|34=45|49=FIXUAT3-TRADE.FORTEX.COM|52=20190913-15:04:45.598|56=T1DEMO_FIX|10=201|
20190913-15:05:15.208154000 : 8=FIX.4.4|9=78|35=0|49=T1DEMO_FIX|56=FIXUAT3-TRADE.FORTEX.COM|34=46|52=20190913-15:05:15.205|10=185|
20190913-15:05:15.690538000 : 8=FIX.4.4|9=78|35=0|34=46|49=FIXUAT3-TRADE.FORTEX.COM|52=20190913-15:05:15.598|56=T1DEMO_FIX|10=200|
20190913-15:05:45.345960000 : 8=FIX.4.4|9=78|35=0|49=T1DEMO_FIX|56=FIXUAT3-TRADE.FORTEX.COM|34=47|52=20190913-15:05:45.345|10=194|
20190913-15:05:45.696004000 : 8=FIX.4.4|9=78|35=0|34=47|49=FIXUAT3-TRADE.FORTEX.COM|52=20190913-15:05:45.598|56=T1DEMO_FIX|10=204|
20190913-15:06:15.295238000 : 8=FIX.4.4|9=78|35=0|49=T1DEMO_FIX|56=FIXUAT3-TRADE.FORTEX.COM|34=48|52=20190913-15:06:15.293|10=195|
20190913-15:06:15.690027000 : 8=FIX.4.4|9=78|35=0|34=48|49=FIXUAT3-TRADE.FORTEX.COM|52=20190913-15:06:15.599|56=T1DEMO_FIX|10=204|
20190913-15:06:45.671953000 : 8=FIX.4.4|9=78|35=0|49=T1DEMO_FIX|56=FIXUAT3-TRADE.FORTEX.COM|34=49|52=20190913-15:06:45.671|10=199|
20190913-15:06:45.709666000 : 8=FIX.4.4|9=78|35=0|34=49|49=FIXUAT3-TRADE.FORTEX.COM|52=20190913-15:06:45.599|56=T1DEMO_FIX|10=208|
20190913-15:07:15.244645000 : 8=FIX.4.4|9=78|35=0|49=T1DEMO_FIX|56=FIXUAT3-TRADE.FORTEX.COM|34=50|52=20190913-15:07:15.244|10=185|
20190913-15:07:15.691528000 : 8=FIX.4.4|9=78|35=0|34=50|49=FIXUAT3-TRADE.FORTEX.COM|52=20190913-15:07:15.598|56=T1DEMO_FIX|10=197|
20190913-15:07:45.004931000 : 8=FIX.4.4|9=78|35=0|49=T1DEMO_FIX|56=FIXUAT3-TRADE.FORTEX.COM|34=51|52=20190913-15:07:45.002|10=181|
20190913-15:07:45.690379000 : 8=FIX.4.4|9=78|35=0|34=51|49=FIXUAT3-TRADE.FORTEX.COM|52=20190913-15:07:45.598|56=T1DEMO_FIX|10=201|
20190913-15:08:15.008713000 : 8=FIX.4.4|9=78|35=0|49=T1DEMO_FIX|56=FIXUAT3-TRADE.FORTEX.COM|34=52|52=20190913-15:08:15.004|10=182|
20190913-15:08:15.700983000 : 8=FIX.4.4|9=78|35=0|34=52|49=FIXUAT3-TRADE.FORTEX.COM|52=20190913-15:08:15.598|56=T1DEMO_FIX|10=200|
20190913-15:08:45.670593000 : 8=FIX.4.4|9=78|35=0|49=T1DEMO_FIX|56=FIXUAT3-TRADE.FORTEX.COM|34=53|52=20190913-15:08:45.670|10=195|
20190913-15:08:45.691271000 : 8=FIX.4.4|9=78|35=0|34=53|49=FIXUAT3-TRADE.FORTEX.COM|52=20190913-15:08:45.598|56=T1DEMO_FIX|10=204|
20190913-15:09:15.570199000 : 8=FIX.4.4|9=78|35=0|49=T1DEMO_FIX|56=FIXUAT3-TRADE.FORTEX.COM|34=54|52=20190913-15:09:15.569|10=201|
20190913-15:09:15.691717000 : 8=FIX.4.4|9=78|35=0|34=54|49=FIXUAT3-TRADE.FORTEX.COM|52=20190913-15:09:15.598|56=T1DEMO_FIX|10=203|
20190913-15:09:45.950645000 : 8=FIX.4.4|9=78|35=0|49=T1DEMO_FIX|56=FIXUAT3-TRADE.FORTEX.COM|34=55|52=20190913-15:09:45.060|10=191|
20190913-15:09:45.950884000 : 8=FIX.4.4|9=78|35=0|34=55|49=FIXUAT3-TRADE.FORTEX.COM|52=20190913-15:09:45.598|56=T1DEMO_FIX|10=207|
20190913-15:10:15.692412000 : 8=FIX.4.4|9=78|35=0|34=56|49=FIXUAT3-TRADE.FORTEX.COM|52=20190913-15:10:15.599|56=T1DEMO_FIX|10=198|
20190913-15:10:15.694254000 : 8=FIX.4.4|9=78|35=0|49=T1DEMO_FIX|56=FIXUAT3-TRADE.FORTEX.COM|34=56|52=20190913-15:10:15.693|10=193|
20190913-15:10:45.691325000 : 8=FIX.4.4|9=78|35=0|34=57|49=FIXUAT3-TRADE.FORTEX.COM|52=20190913-15:10:45.598|56=T1DEMO_FIX|10=201|
20190913-15:10:45.707414000 : 8=FIX.4.4|9=78|35=0|49=T1DEMO_FIX|56=FIXUAT3-TRADE.FORTEX.COM|34=57|52=20190913-15:10:45.701|10=187|
20190913-15:11:15.170613000 : 8=FIX.4.4|9=78|35=0|49=T1DEMO_FIX|56=FIXUAT3-TRADE.FORTEX.COM|34=58|52=20190913-15:11:15.170|10=186|
20190913-15:11:15.696668000 : 8=FIX.4.4|9=78|35=0|34=58|49=FIXUAT3-TRADE.FORTEX.COM|52=20190913-15:11:15.599|56=T1DEMO_FIX|10=201|
20190913-15:11:45.692199000 : 8=FIX.4.4|9=78|35=0|34=59|49=FIXUAT3-TRADE.FORTEX.COM|52=20190913-15:11:45.598|56=T1DEMO_FIX|10=204|
20190913-15:11:45.692743000 : 8=FIX.4.4|9=78|35=0|49=T1DEMO_FIX|56=FIXUAT3-TRADE.FORTEX.COM|34=59|52=20190913-15:11:45.692|10=199|
20190913-15:12:15.254225000 : 8=FIX.4.4|9=78|35=0|49=T1DEMO_FIX|56=FIXUAT3-TRADE.FORTEX.COM|34=60|52=20190913-15:12:15.253|10=182|
20190913-15:12:15.691603000 : 8=FIX.4.4|9=78|35=0|34=60|49=FIXUAT3-TRADE.FORTEX.COM|52=20190913-15:12:15.598|56=T1DEMO_FIX|10=194|
20190913-15:12:45.466632000 : 8=FIX.4.4|9=78|35=0|49=T1DEMO_FIX|56=FIXUAT3-TRADE.FORTEX.COM|34=61|52=20190913-15:12:45.465|10=191|
20190913-15:12:45.692667000 : 8=FIX.4.4|9=78|35=0|34=61|49=FIXUAT3-TRADE.FORTEX.COM|52=20190913-15:12:45.599|56=T1DEMO_FIX|10=199|
20190913-15:13:15.508864000 : 8=FIX.4.4|9=78|35=0|49=T1DEMO_FIX|56=FIXUAT3-TRADE.FORTEX.COM|34=62|52=20190913-15:13:15.508|10=188|
20190913-15:13:15.693220000 : 8=FIX.4.4|9=78|35=0|34=62|49=FIXUAT3-TRADE.FORTEX.COM|52=20190913-15:13:15.599|56=T1DEMO_FIX|10=198|
20190913-15:13:45.120343000 : 8=FIX.4.4|9=78|35=0|49=T1DEMO_FIX|56=FIXUAT3-TRADE.FORTEX.COM|34=63|52=20190913-15:13:45.120|10=182|
20190913-15:13:45.692462000 : 8=FIX.4.4|9=78|35=0|34=63|49=FIXUAT3-TRADE.FORTEX.COM|52=20190913-15:13:45.599|56=T1DEMO_FIX|10=202|
20190913-15:14:15.612417000 : 8=FIX.4.4|9=78|35=0|49=T1DEMO_FIX|56=FIXUAT3-TRADE.FORTEX.COM|34=64|52=20190913-15:14:15.612|10=187|
20190913-15:14:15.701762000 : 8=FIX.4.4|9=78|35=0|34=64|49=FIXUAT3-TRADE.FORTEX.COM|52=20190913-15:14:15.599|56=T1DEMO_FIX|10=201|
20190913-15:14:45.690147000 : 8=FIX.4.4|9=78|35=0|49=T1DEMO_FIX|56=FIXUAT3-TRADE.FORTEX.COM|34=65|52=20190913-15:14:45.689|10=205|
20190913-15:14:45.731341000 : 8=FIX.4.4|9=78|35=0|34=65|49=FIXUAT3-TRADE.FORTEX.COM|52=20190913-15:14:45.598|56=T1DEMO_FIX|10=204|
20190913-15:15:15.692903000 : 8=FIX.4.4|9=78|35=0|34=66|49=FIXUAT3-TRADE.FORTEX.COM|52=20190913-15:15:15.598|56=T1DEMO_FIX|10=203|
20190913-15:15:15.696200000 : 8=FIX.4.4|9=78|35=0|49=T1DEMO_FIX|56=FIXUAT3-TRADE.FORTEX.COM|34=66|52=20190913-15:15:15.695|10=201|
20190913-15:15:45.043962000 : 8=FIX.4.4|9=78|35=0|49=T1DEMO_FIX|56=FIXUAT3-TRADE.FORTEX.COM|34=67|52=20190913-15:15:45.043|10=192|
20190913-15:15:45.692645000 : 8=FIX.4.4|9=78|35=0|34=67|49=FIXUAT3-TRADE.FORTEX.COM|52=20190913-15:15:45.598|56=T1DEMO_FIX|10=207|
20190913-15:16:15.075005000 : 8=FIX.4.4|9=78|35=0|49=T1DEMO_FIX|56=FIXUAT3-TRADE.FORTEX.COM|34=68|52=20190913-15:16:15.064|10=194|
20190913-15:16:15.692357000 : 8=FIX.4.4|9=78|35=0|34=68|49=FIXUAT3-TRADE.FORTEX.COM|52=20190913-15:16:15.598|56=T1DEMO_FIX|10=206|
20190913-15:16:45.150898000 : 8=FIX.4.4|9=78|35=0|49=T1DEMO_FIX|56=FIXUAT3-TRADE.FORTEX.COM|34=69|52=20190913-15:16:45.150|10=194|
20190913-15:16:45.700806000 : 8=FIX.4.4|9=78|35=0|34=69|49=FIXUAT3-TRADE.FORTEX.COM|52=20190913-15:16:45.599|56=T1DEMO_FIX|10=211|
