20190913-14:42:44.799570000 : 8=FIX.4.4|9=129|35=A|49=T1DEMO_FIX_QS|56=FIXUAT3-QUOTE.FORTEX.COM|34=1|52=20190913-14:42:44.798|98=0|108=30|141=Y|553=T1DEMO_FIX_QS|554=ABCD1234|10=182|
20190913-14:42:45.156764000 : 8=FIX.4.4|9=315|35=A|34=1|49=FIXUAT3-QUOTE.FORTEX.COM|52=20190913-14:42:45.055|56=T1DEMO_FIX_QS|98=0|108=30|384=18|372=0|385=S|372=0|385=R|372=1|385=S|372=1|385=R|372=2|385=S|372=2|385=R|372=3|385=S|372=3|385=R|372=4|385=S|372=4|385=R|372=A|385=S|372=A|385=R|372=5|385=R|372=5|385=S|372=j|385=S|372=V|385=R|372=W|385=S|372=Y|385=S|10=079|
20190913-14:43:09.197014000 : 8=FIX.4.4|9=157|35=V|34=2|49=T1DEMO_FIX_QS|52=20190913-14:43:09.196|56=FIXUAT3-QUOTE.FORTEX.COM|146=1|55=EUR/USD|262=1-1568400189.195383|263=1|264=1|265=0|267=2|269=0|269=1|10=181|
20190913-14:43:10.516978000 : 8=FIX.4.4|9=182|35=W|34=2|49=FIXUAT3-QUOTE.FORTEX.COM|52=20190913-14:43:10.421|56=T1DEMO_FIX_QS|55=EUR/USD|262=1-1568400189.195383|268=2|269=0|270=1.107300|271=100000|269=1|270=1.107320|271=1000000|10=096|
20190913-14:43:10.980694000 : 8=FIX.4.4|9=182|35=W|34=3|49=FIXUAT3-QUOTE.FORTEX.COM|52=20190913-14:43:10.883|56=T1DEMO_FIX_QS|55=EUR/USD|262=1-1568400189.195383|268=2|269=0|270=1.107280|271=100000|269=1|270=1.107310|271=1000000|10=115|
20190913-14:43:11.464463000 : 8=FIX.4.4|9=182|35=W|34=4|49=FIXUAT3-QUOTE.FORTEX.COM|52=20190913-14:43:11.355|56=T1DEMO_FIX_QS|55=EUR/USD|262=1-1568400189.195383|268=2|269=0|270=1.107280|271=1000000|269=1|270=1.107300|271=100000|10=110|
20190913-14:43:11.921900000 : 8=FIX.4.4|9=181|35=W|34=5|49=FIXUAT3-QUOTE.FORTEX.COM|52=20190913-14:43:11.824|56=T1DEMO_FIX_QS|55=EUR/USD|262=1-1568400189.195383|268=2|269=0|270=1.107260|271=500000|269=1|270=1.107280|271=500000|10=076|
20190913-14:43:12.335988000 : 8=FIX.4.4|9=183|35=W|34=6|49=FIXUAT3-QUOTE.FORTEX.COM|52=20190913-14:43:12.234|56=T1DEMO_FIX_QS|55=EUR/USD|262=1-1568400189.195383|268=2|269=0|270=1.107250|271=1000000|269=1|270=1.107280|271=1000000|10=162|
20190913-14:43:13.095388000 : 8=FIX.4.4|9=182|35=W|34=7|49=FIXUAT3-QUOTE.FORTEX.COM|52=20190913-14:43:12.989|56=T1DEMO_FIX_QS|55=EUR/USD|262=1-1568400189.195383|268=2|269=0|270=1.107250|271=500000|269=1|270=1.107280|271=1000000|10=135|
20190913-14:43:13.503514000 : 8=FIX.4.4|9=183|35=W|34=8|49=FIXUAT3-QUOTE.FORTEX.COM|52=20190913-14:43:13.402|56=T1DEMO_FIX_QS|55=EUR/USD|262=1-1568400189.195383|268=2|269=0|270=1.107250|271=1000000|269=1|270=1.107280|271=1000000|10=162|
20190913-14:43:14.313039000 : 8=FIX.4.4|9=181|35=W|34=9|49=FIXUAT3-QUOTE.FORTEX.COM|52=20190913-14:43:14.207|56=T1DEMO_FIX_QS|55=EUR/USD|262=1-1568400189.195383|268=2|269=0|270=1.107230|271=250000|269=1|270=1.107260|271=100000|10=071|
20190913-14:43:14.781942000 : 8=FIX.4.4|9=184|35=W|34=10|49=FIXUAT3-QUOTE.FORTEX.COM|52=20190913-14:43:14.676|56=T1DEMO_FIX_QS|55=EUR/USD|262=1-1568400189.195383|268=2|269=0|270=1.107240|271=1000000|269=1|270=1.107270|271=3000000|10=218|
20190913-14:43:15.199263000 : 8=FIX.4.4|9=184|35=W|34=11|49=FIXUAT3-QUOTE.FORTEX.COM|52=20190913-14:43:15.094|56=T1DEMO_FIX_QS|55=EUR/USD|262=1-1568400189.195383|268=2|269=0|270=1.107250|271=1000000|269=1|270=1.107280|271=1000000|10=214|
20190913-14:43:15.644549000 : 8=FIX.4.4|9=182|35=W|34=12|49=FIXUAT3-QUOTE.FORTEX.COM|52=20190913-14:43:15.509|56=T1DEMO_FIX_QS|55=EUR/USD|262=1-1568400189.195383|268=2|269=0|270=1.107260|271=100000|269=1|270=1.107290|271=100000|10=120|
20190913-14:43:16.030003000 : 8=FIX.4.4|9=183|35=W|34=13|49=FIXUAT3-QUOTE.FORTEX.COM|52=20190913-14:43:15.892|56=T1DEMO_FIX_QS|55=EUR/USD|262=1-1568400189.195383|268=2|269=0|270=1.107270|271=100000|269=1|270=1.107290|271=1000000|10=176|
20190913-14:43:17.223270000 : 8=FIX.4.4|9=182|35=W|34=14|49=FIXUAT3-QUOTE.FORTEX.COM|52=20190913-14:43:17.133|56=T1DEMO_FIX_QS|55=EUR/USD|262=1-1568400189.195383|268=2|269=0|270=1.107260|271=100000|269=1|270=1.107290|271=100000|10=117|
20190913-14:43:17.632892000 : 8=FIX.4.4|9=184|35=W|34=15|49=FIXUAT3-QUOTE.FORTEX.COM|52=20190913-14:43:17.535|56=T1DEMO_FIX_QS|55=EUR/USD|262=1-1568400189.195383|268=2|269=0|270=1.107260|271=1000000|269=1|270=1.107290|271=1000000|10=222|
20190913-14:43:18.048701000 : 8=FIX.4.4|9=183|35=W|34=16|49=FIXUAT3-QUOTE.FORTEX.COM|52=20190913-14:43:17.952|56=T1DEMO_FIX_QS|55=EUR/USD|262=1-1568400189.195383|268=2|269=0|270=1.107270|271=100000|269=1|270=1.107290|271=1000000|10=178|
20190913-14:43:19.405802000 : 8=FIX.4.4|9=184|35=W|34=17|49=FIXUAT3-QUOTE.FORTEX.COM|52=20190913-14:43:19.304|56=T1DEMO_FIX_QS|55=EUR/USD|262=1-1568400189.195383|268=2|269=0|270=1.107260|271=1000000|269=1|270=1.107290|271=1000000|10=220|
20190913-14:43:19.861084000 : 8=FIX.4.4|9=183|35=W|34=18|49=FIXUAT3-QUOTE.FORTEX.COM|52=20190913-14:43:19.756|56=T1DEMO_FIX_QS|55=EUR/USD|262=1-1568400189.195383|268=2|269=0|270=1.107260|271=100000|269=1|270=1.107290|271=1000000|10=183|
20190913-14:43:20.280958000 : 8=FIX.4.4|9=182|35=W|34=19|49=FIXUAT3-QUOTE.FORTEX.COM|52=20190913-14:43:20.189|56=T1DEMO_FIX_QS|55=EUR/USD|262=1-1568400189.195383|268=2|269=0|270=1.107260|271=100000|269=1|270=1.107290|271=100000|10=127|
20190913-14:43:20.736331000 : 8=FIX.4.4|9=183|35=W|34=20|49=FIXUAT3-QUOTE.FORTEX.COM|52=20190913-14:43:20.641|56=T1DEMO_FIX_QS|55=EUR/USD|262=1-1568400189.195383|268=2|269=0|270=1.107260|271=100000|269=1|270=1.107290|271=1000000|10=161|
20190913-14:43:21.240171000 : 8=FIX.4.4|9=182|35=W|34=21|49=FIXUAT3-QUOTE.FORTEX.COM|52=20190913-14:43:21.134|56=T1DEMO_FIX_QS|55=EUR/USD|262=1-1568400189.195383|268=2|269=0|270=1.107260|271=100000|269=1|270=1.107290|271=100000|10=111|
20190913-14:43:22.112600000 : 8=FIX.4.4|9=182|35=W|34=22|49=FIXUAT3-QUOTE.FORTEX.COM|52=20190913-14:43:22.004|56=T1DEMO_FIX_QS|55=EUR/USD|262=1-1568400189.195383|268=2|269=0|270=1.107260|271=100000|269=1|270=1.107290|271=500000|10=113|
20190913-14:43:22.573222000 : 8=FIX.4.4|9=184|35=W|34=23|49=FIXUAT3-QUOTE.FORTEX.COM|52=20190913-14:43:22.472|56=T1DEMO_FIX_QS|55=EUR/USD|262=1-1568400189.195383|268=2|269=0|270=1.107260|271=1000000|269=1|270=1.107290|271=1000000|10=217|
20190913-14:43:23.032977000 : 8=FIX.4.4|9=183|35=W|34=24|49=FIXUAT3-QUOTE.FORTEX.COM|52=20190913-14:43:22.939|56=T1DEMO_FIX_QS|55=EUR/USD|262=1-1568400189.195383|268=2|269=0|270=1.107250|271=100000|269=1|270=1.107270|271=1000000|10=174|
20190913-14:43:23.476243000 : 8=FIX.4.4|9=183|35=W|34=25|49=FIXUAT3-QUOTE.FORTEX.COM|52=20190913-14:43:23.379|56=T1DEMO_FIX_QS|55=EUR/USD|262=1-1568400189.195383|268=2|269=0|270=1.107240|271=100000|269=1|270=1.107270|271=1000000|10=173|
20190913-14:43:23.920286000 : 8=FIX.4.4|9=182|35=W|34=26|49=FIXUAT3-QUOTE.FORTEX.COM|52=20190913-14:43:23.830|56=T1DEMO_FIX_QS|55=EUR/USD|262=1-1568400189.195383|268=2|269=0|270=1.107240|271=100000|269=1|270=1.107270|271=100000|10=117|
20190913-14:43:24.836871000 : 8=FIX.4.4|9=183|35=W|34=27|49=FIXUAT3-QUOTE.FORTEX.COM|52=20190913-14:43:24.744|56=T1DEMO_FIX_QS|55=EUR/USD|262=1-1568400189.195383|268=2|269=0|270=1.107260|271=1000000|269=1|270=1.107280|271=500000|10=179|
20190913-14:43:25.292216000 : 8=FIX.4.4|9=182|35=W|34=28|49=FIXUAT3-QUOTE.FORTEX.COM|52=20190913-14:43:25.200|56=T1DEMO_FIX_QS|55=EUR/USD|262=1-1568400189.195383|268=2|269=0|270=1.107280|271=100000|269=1|270=1.107310|271=100000|10=111|
20190913-14:43:25.762418000 : 8=FIX.4.4|9=183|35=W|34=29|49=FIXUAT3-QUOTE.FORTEX.COM|52=20190913-14:43:25.652|56=T1DEMO_FIX_QS|55=EUR/USD|262=1-1568400189.195383|268=2|269=0|270=1.107310|271=100000|269=1|270=1.107330|271=1000000|10=168|
20190913-14:43:26.177052000 : 8=FIX.4.4|9=183|35=W|34=30|49=FIXUAT3-QUOTE.FORTEX.COM|52=20190913-14:43:26.081|56=T1DEMO_FIX_QS|55=EUR/USD|262=1-1568400189.195383|268=2|269=0|270=1.107310|271=100000|269=1|270=1.107340|271=1000000|10=158|
20190913-14:43:28.291194000 : 8=FIX.4.4|9=183|35=W|34=31|49=FIXUAT3-QUOTE.FORTEX.COM|52=20190913-14:43:28.179|56=T1DEMO_FIX_QS|55=EUR/USD|262=1-1568400189.195383|268=2|269=0|270=1.107300|271=3000000|269=1|270=1.107330|271=100000|10=169|
20190913-14:43:29.073814000 : 8=FIX.4.4|9=182|35=W|34=32|49=FIXUAT3-QUOTE.FORTEX.COM|52=20190913-14:43:28.590|56=T1DEMO_FIX_QS|55=EUR/USD|262=1-1568400189.195383|268=2|269=0|270=1.107290|271=100000|269=1|270=1.107320|271=100000|10=123|
20190913-14:43:29.160779000 : 8=FIX.4.4|9=183|35=W|34=33|49=FIXUAT3-QUOTE.FORTEX.COM|52=20190913-14:43:29.022|56=T1DEMO_FIX_QS|55=EUR/USD|262=1-1568400189.195383|268=2|269=0|270=1.107290|271=100000|269=1|270=1.107320|271=1000000|10=164|
20190913-14:43:29.528815000 : 8=FIX.4.4|9=184|35=W|34=34|49=FIXUAT3-QUOTE.FORTEX.COM|52=20190913-14:43:29.439|56=T1DEMO_FIX_QS|55=EUR/USD|262=1-1568400189.195383|268=2|269=0|270=1.107290|271=1000000|269=1|270=1.107300|271=1000000|10=224|
20190913-14:43:29.964664000 : 8=FIX.4.4|9=184|35=W|34=35|49=FIXUAT3-QUOTE.FORTEX.COM|52=20190913-14:43:29.862|56=T1DEMO_FIX_QS|55=EUR/USD|262=1-1568400189.195383|268=2|269=0|270=1.107290|271=1000000|269=1|270=1.107320|271=1000000|10=227|
20190913-14:43:30.392986000 : 8=FIX.4.4|9=182|35=W|34=36|49=FIXUAT3-QUOTE.FORTEX.COM|52=20190913-14:43:30.292|56=T1DEMO_FIX_QS|55=EUR/USD|262=1-1568400189.195383|268=2|269=0|270=1.107310|271=100000|269=1|270=1.107340|271=100000|10=114|
20190913-14:43:31.662125000 : 8=FIX.4.4|9=182|35=W|34=37|49=FIXUAT3-QUOTE.FORTEX.COM|52=20190913-14:43:31.178|56=T1DEMO_FIX_QS|55=EUR/USD|262=1-1568400189.195383|268=2|269=0|270=1.107360|271=100000|269=1|270=1.107390|271=100000|10=129|
20190913-14:43:31.694119000 : 8=FIX.4.4|9=184|35=W|34=38|49=FIXUAT3-QUOTE.FORTEX.COM|52=20190913-14:43:31.604|56=T1DEMO_FIX_QS|55=EUR/USD|262=1-1568400189.195383|268=2|269=0|270=1.107380|271=1000000|269=1|270=1.107410|271=1000000|10=217|
20190913-14:43:32.146350000 : 8=FIX.4.4|9=183|35=W|34=39|49=FIXUAT3-QUOTE.FORTEX.COM|52=20190913-14:43:32.040|56=T1DEMO_FIX_QS|55=EUR/USD|262=1-1568400189.195383|268=2|269=0|270=1.107380|271=100000|269=1|270=1.107410|271=1000000|10=164|
20190913-14:43:32.582091000 : 8=FIX.4.4|9=182|35=W|34=40|49=FIXUAT3-QUOTE.FORTEX.COM|52=20190913-14:43:32.493|56=T1DEMO_FIX_QS|55=EUR/USD|262=1-1568400189.195383|268=2|269=0|270=1.107380|271=100000|269=1|270=1.107410|271=100000|10=119|
20190913-14:43:33.945358000 : 8=FIX.4.4|9=182|35=W|34=41|49=FIXUAT3-QUOTE.FORTEX.COM|52=20190913-14:43:33.841|56=T1DEMO_FIX_QS|55=EUR/USD|262=1-1568400189.195383|268=2|269=0|270=1.107380|271=100000|269=1|270=1.107410|271=500000|10=122|
20190913-14:43:34.397072000 : 8=FIX.4.4|9=183|35=W|34=42|49=FIXUAT3-QUOTE.FORTEX.COM|52=20190913-14:43:34.308|56=T1DEMO_FIX_QS|55=EUR/USD|262=1-1568400189.195383|268=2|269=0|270=1.107390|271=1000000|269=1|270=1.107410|271=100000|10=168|
20190913-14:43:34.888495000 : 8=FIX.4.4|9=182|35=W|34=43|49=FIXUAT3-QUOTE.FORTEX.COM|52=20190913-14:43:34.781|56=T1DEMO_FIX_QS|55=EUR/USD|262=1-1568400189.195383|268=2|269=0|270=1.107460|271=100000|269=1|270=1.107490|271=100000|10=131|
20190913-14:43:36.255940000 : 8=FIX.4.4|9=183|35=W|34=44|49=FIXUAT3-QUOTE.FORTEX.COM|52=20190913-14:43:35.194|56=T1DEMO_FIX_QS|55=EUR/USD|262=1-1568400189.195383|268=2|269=0|270=1.107430|271=1000000|269=1|270=1.107460|271=500000|10=178|
20190913-14:43:36.256723000 : 8=FIX.4.4|9=183|35=W|34=45|49=FIXUAT3-QUOTE.FORTEX.COM|52=20190913-14:43:35.555|56=T1DEMO_FIX_QS|55=EUR/USD|262=1-1568400189.195383|268=2|269=0|270=1.107390|271=100000|269=1|270=1.107420|271=1000000|10=177|
20190913-14:43:36.257340000 : 8=FIX.4.4|9=182|35=W|34=46|49=FIXUAT3-QUOTE.FORTEX.COM|52=20190913-14:43:35.961|56=T1DEMO_FIX_QS|55=EUR/USD|262=1-1568400189.195383|268=2|269=0|270=1.107390|271=100000|269=1|270=1.107420|271=100000|10=130|
20190913-14:43:36.856149000 : 8=FIX.4.4|9=183|35=W|34=47|49=FIXUAT3-QUOTE.FORTEX.COM|52=20190913-14:43:36.753|56=T1DEMO_FIX_QS|55=EUR/USD|262=1-1568400189.195383|268=2|269=0|270=1.107390|271=100000|269=1|270=1.107420|271=1000000|10=180|
20190913-14:43:38.067812000 : 8=FIX.4.4|9=184|35=W|34=48|49=FIXUAT3-QUOTE.FORTEX.COM|52=20190913-14:43:37.961|56=T1DEMO_FIX_QS|55=EUR/USD|262=1-1568400189.195383|268=2|269=0|270=1.107390|271=1000000|269=1|270=1.107410|271=1000000|10=231|
20190913-14:43:38.512475000 : 8=FIX.4.4|9=184|35=W|34=49|49=FIXUAT3-QUOTE.FORTEX.COM|52=20190913-14:43:38.415|56=T1DEMO_FIX_QS|55=EUR/USD|262=1-1568400189.195383|268=2|269=0|270=1.107380|271=1000000|269=1|270=1.107410|271=1000000|10=226|
20190913-14:43:38.933044000 : 8=FIX.4.4|9=183|35=W|34=50|49=FIXUAT3-QUOTE.FORTEX.COM|52=20190913-14:43:38.842|56=T1DEMO_FIX_QS|55=EUR/USD|262=1-1568400189.195383|268=2|269=0|270=1.107380|271=1000000|269=1|270=1.107400|271=100000|10=172|
20190913-14:43:39.200600000 : 8=FIX.4.4|9=80|35=0|49=T1DEMO_FIX_QS|56=FIXUAT3-QUOTE.FORTEX.COM|34=3|52=20190913-14:43:39.200|10=158|
20190913-14:43:39.392014000 : 8=FIX.4.4|9=182|35=W|34=51|49=FIXUAT3-QUOTE.FORTEX.COM|52=20190913-14:43:39.295|56=T1DEMO_FIX_QS|55=EUR/USD|262=1-1568400189.195383|268=2|269=0|270=1.107380|271=250000|269=1|270=1.107410|271=100000|10=134|
20190913-14:43:40.264993000 : 8=FIX.4.4|9=182|35=W|34=52|49=FIXUAT3-QUOTE.FORTEX.COM|52=20190913-14:43:40.171|56=T1DEMO_FIX_QS|55=EUR/USD|262=1-1568400189.195383|268=2|269=0|270=1.107380|271=100000|269=1|270=1.107410|271=100000|10=114|
20190913-14:43:42.312126000 : 8=FIX.4.4|9=183|35=W|34=53|49=FIXUAT3-QUOTE.FORTEX.COM|52=20190913-14:43:42.142|56=T1DEMO_FIX_QS|55=EUR/USD|262=1-1568400189.195383|268=2|269=0|270=1.107380|271=100000|269=1|270=1.107410|271=1000000|10=164|
20190913-14:43:44.097622000 : 8=FIX.4.4|9=183|35=W|34=54|49=FIXUAT3-QUOTE.FORTEX.COM|52=20190913-14:43:43.990|56=T1DEMO_FIX_QS|55=EUR/USD|262=1-1568400189.195383|268=2|269=0|270=1.107400|271=250000|269=1|270=1.107420|271=1000000|10=177|
20190913-14:43:44.920142000 : 8=FIX.4.4|9=182|35=W|34=55|49=FIXUAT3-QUOTE.FORTEX.COM|52=20190913-14:43:44.418|56=T1DEMO_FIX_QS|55=EUR/USD|262=1-1568400189.195383|268=2|269=0|270=1.107400|271=100000|269=1|270=1.107430|271=100000|10=120|
20190913-14:43:45.456557000 : 8=FIX.4.4|9=183|35=W|34=56|49=FIXUAT3-QUOTE.FORTEX.COM|52=20190913-14:43:45.348|56=T1DEMO_FIX_QS|55=EUR/USD|262=1-1568400189.195383|268=2|269=0|270=1.107400|271=1000000|269=1|270=1.107420|271=100000|10=172|
20190913-14:43:45.888397000 : 8=FIX.4.4|9=182|35=W|34=57|49=FIXUAT3-QUOTE.FORTEX.COM|52=20190913-14:43:45.781|56=T1DEMO_FIX_QS|55=EUR/USD|262=1-1568400189.195383|268=2|269=0|270=1.107390|271=100000|269=1|270=1.107420|271=100000|10=133|
20190913-14:43:46.327846000 : 8=FIX.4.4|9=183|35=W|34=58|49=FIXUAT3-QUOTE.FORTEX.COM|52=20190913-14:43:46.230|56=T1DEMO_FIX_QS|55=EUR/USD|262=1-1568400189.195383|268=2|269=0|270=1.107390|271=1000000|269=1|270=1.107420|271=500000|10=177|
20190913-14:43:47.268760000 : 8=FIX.4.4|9=182|35=W|34=59|49=FIXUAT3-QUOTE.FORTEX.COM|52=20190913-14:43:47.174|56=T1DEMO_FIX_QS|55=EUR/USD|262=1-1568400189.195383|268=2|269=0|270=1.107390|271=100000|269=1|270=1.107420|271=100000|10=133|
20190913-14:43:47.752670000 : 8=FIX.4.4|9=182|35=W|34=60|49=FIXUAT3-QUOTE.FORTEX.COM|52=20190913-14:43:47.639|56=T1DEMO_FIX_QS|55=EUR/USD|262=1-1568400189.195383|268=2|269=0|270=1.107390|271=100000|269=1|270=1.107420|271=250000|10=137|
20190913-14:43:48.183376000 : 8=FIX.4.4|9=182|35=W|34=61|49=FIXUAT3-QUOTE.FORTEX.COM|52=20190913-14:43:48.094|56=T1DEMO_FIX_QS|55=EUR/USD|262=1-1568400189.195383|268=2|269=0|270=1.107400|271=100000|269=1|270=1.107420|271=500000|10=124|
20190913-14:43:48.680176000 : 8=FIX.4.4|9=182|35=W|34=62|49=FIXUAT3-QUOTE.FORTEX.COM|52=20190913-14:43:48.576|56=T1DEMO_FIX_QS|55=EUR/USD|262=1-1568400189.195383|268=2|269=0|270=1.107390|271=100000|269=1|270=1.107420|271=100000|10=134|
20190913-14:43:49.161145000 : 8=FIX.4.4|9=182|35=W|34=63|49=FIXUAT3-QUOTE.FORTEX.COM|52=20190913-14:43:49.062|56=T1DEMO_FIX_QS|55=EUR/USD|262=1-1568400189.195383|268=2|269=0|270=1.107400|271=100000|269=1|270=1.107420|271=500000|10=122|
20190913-14:43:49.648256000 : 8=FIX.4.4|9=182|35=W|34=64|49=FIXUAT3-QUOTE.FORTEX.COM|52=20190913-14:43:49.539|56=T1DEMO_FIX_QS|55=EUR/USD|262=1-1568400189.195383|268=2|269=0|270=1.107400|271=250000|269=1|270=1.107420|271=500000|10=138|
20190913-14:43:50.583179000 : 8=FIX.4.4|9=182|35=W|34=65|49=FIXUAT3-QUOTE.FORTEX.COM|52=20190913-14:43:50.479|56=T1DEMO_FIX_QS|55=EUR/USD|262=1-1568400189.195383|268=2|269=0|270=1.107400|271=100000|269=1|270=1.107420|271=500000|10=128|
20190913-14:43:51.062340000 : 8=FIX.4.4|9=182|35=W|34=66|49=FIXUAT3-QUOTE.FORTEX.COM|52=20190913-14:43:50.957|56=T1DEMO_FIX_QS|55=EUR/USD|262=1-1568400189.195383|268=2|269=0|270=1.107390|271=100000|269=1|270=1.107420|271=250000|10=140|
20190913-14:43:51.480258000 : 8=FIX.4.4|9=184|35=W|34=67|49=FIXUAT3-QUOTE.FORTEX.COM|52=20190913-14:43:51.391|56=T1DEMO_FIX_QS|55=EUR/USD|262=1-1568400189.195383|268=2|269=0|270=1.107390|271=1000000|269=1|270=1.107420|271=1000000|10=226|
20190913-14:43:54.678458000 : 8=FIX.4.4|9=183|35=W|34=68|49=FIXUAT3-QUOTE.FORTEX.COM|52=20190913-14:43:54.575|56=T1DEMO_FIX_QS|55=EUR/USD|262=1-1568400189.195383|268=2|269=0|270=1.107420|271=1000000|269=1|270=1.107450|271=500000|10=186|
20190913-14:43:55.097233000 : 8=FIX.4.4|9=183|35=W|34=69|49=FIXUAT3-QUOTE.FORTEX.COM|52=20190913-14:43:55.007|56=T1DEMO_FIX_QS|55=EUR/USD|262=1-1568400189.195383|268=2|269=0|270=1.107420|271=1000000|269=1|270=1.107450|271=250000|10=180|
20190913-14:43:55.556805000 : 8=FIX.4.4|9=183|35=W|34=70|49=FIXUAT3-QUOTE.FORTEX.COM|52=20190913-14:43:55.451|56=T1DEMO_FIX_QS|55=EUR/USD|262=1-1568400189.195383|268=2|269=0|270=1.107420|271=1000000|269=1|270=1.107440|271=100000|10=168|
20190913-14:43:56.004663000 : 8=FIX.4.4|9=183|35=W|34=71|49=FIXUAT3-QUOTE.FORTEX.COM|52=20190913-14:43:55.905|56=T1DEMO_FIX_QS|55=EUR/USD|262=1-1568400189.195383|268=2|269=0|270=1.107430|271=250000|269=1|270=1.107450|271=1000000|10=181|
20190913-14:43:56.459920000 : 8=FIX.4.4|9=183|35=W|34=72|49=FIXUAT3-QUOTE.FORTEX.COM|52=20190913-14:43:56.352|56=T1DEMO_FIX_QS|55=EUR/USD|262=1-1568400189.195383|268=2|269=0|270=1.107460|271=100000|269=1|270=1.107490|271=1000000|10=180|
20190913-14:43:56.917827000 : 8=FIX.4.4|9=184|35=W|34=73|49=FIXUAT3-QUOTE.FORTEX.COM|52=20190913-14:43:56.823|56=T1DEMO_FIX_QS|55=EUR/USD|262=1-1568400189.195383|268=2|269=0|270=1.107460|271=1000000|269=1|270=1.107490|271=1000000|10=233|
20190913-14:43:58.290243000 : 8=FIX.4.4|9=182|35=W|34=74|49=FIXUAT3-QUOTE.FORTEX.COM|52=20190913-14:43:58.198|56=T1DEMO_FIX_QS|55=EUR/USD|262=1-1568400189.195383|268=2|269=0|270=1.107460|271=100000|269=1|270=1.107490|271=100000|10=143|
20190913-14:43:59.240351000 : 8=FIX.4.4|9=183|35=W|34=75|49=FIXUAT3-QUOTE.FORTEX.COM|52=20190913-14:43:59.142|56=T1DEMO_FIX_QS|55=EUR/USD|262=1-1568400189.195383|268=2|269=0|270=1.107460|271=100000|269=1|270=1.107490|271=1000000|10=183|
20190913-14:43:59.696245000 : 8=FIX.4.4|9=184|35=W|34=76|49=FIXUAT3-QUOTE.FORTEX.COM|52=20190913-14:43:59.593|56=T1DEMO_FIX_QS|55=EUR/USD|262=1-1568400189.195383|268=2|269=0|270=1.107430|271=1000000|269=1|270=1.107450|271=1000000|10=236|
20190913-14:44:00.128247000 : 8=FIX.4.4|9=183|35=W|34=77|49=FIXUAT3-QUOTE.FORTEX.COM|52=20190913-14:44:00.028|56=T1DEMO_FIX_QS|55=EUR/USD|262=1-1568400189.195383|268=2|269=0|270=1.107400|271=100000|269=1|270=1.107430|271=1000000|10=163|
20190913-14:44:00.569988000 : 8=FIX.4.4|9=184|35=W|34=78|49=FIXUAT3-QUOTE.FORTEX.COM|52=20190913-14:44:00.477|56=T1DEMO_FIX_QS|55=EUR/USD|262=1-1568400189.195383|268=2|269=0|270=1.107390|271=1000000|269=1|270=1.107420|271=1000000|10=228|
20190913-14:44:01.926568000 : 8=FIX.4.4|9=183|35=W|34=79|49=FIXUAT3-QUOTE.FORTEX.COM|52=20190913-14:44:01.819|56=T1DEMO_FIX_QS|55=EUR/USD|262=1-1568400189.195383|268=2|269=0|270=1.107390|271=1000000|269=1|270=1.107410|271=500000|10=184|
20190913-14:44:02.374013000 : 8=FIX.4.4|9=184|35=W|34=80|49=FIXUAT3-QUOTE.FORTEX.COM|52=20190913-14:44:02.285|56=T1DEMO_FIX_QS|55=EUR/USD|262=1-1568400189.195383|268=2|269=0|270=1.107400|271=1000000|269=1|270=1.107420|271=1000000|10=212|
20190913-14:44:02.852432000 : 8=FIX.4.4|9=183|35=W|34=81|49=FIXUAT3-QUOTE.FORTEX.COM|52=20190913-14:44:02.757|56=T1DEMO_FIX_QS|55=EUR/USD|262=1-1568400189.195383|268=2|269=0|270=1.107400|271=1000000|269=1|270=1.107420|271=100000|10=168|
20190913-14:44:03.344319000 : 8=FIX.4.4|9=183|35=W|34=82|49=FIXUAT3-QUOTE.FORTEX.COM|52=20190913-14:44:03.251|56=T1DEMO_FIX_QS|55=EUR/USD|262=1-1568400189.195383|268=2|269=0|270=1.107400|271=1000000|269=1|270=1.107430|271=100000|10=160|
20190913-14:44:03.801951000 : 8=FIX.4.4|9=183|35=W|34=83|49=FIXUAT3-QUOTE.FORTEX.COM|52=20190913-14:44:03.690|56=T1DEMO_FIX_QS|55=EUR/USD|262=1-1568400189.195383|268=2|269=0|270=1.107410|271=100000|269=1|270=1.107440|271=1000000|10=170|
20190913-14:44:05.133729000 : 8=FIX.4.4|9=183|35=W|34=84|49=FIXUAT3-QUOTE.FORTEX.COM|52=20190913-14:44:05.041|56=T1DEMO_FIX_QS|55=EUR/USD|262=1-1568400189.195383|268=2|269=0|270=1.107400|271=1000000|269=1|270=1.107430|271=100000|10=161|
20190913-14:44:05.584352000 : 8=FIX.4.4|9=183|35=W|34=85|49=FIXUAT3-QUOTE.FORTEX.COM|52=20190913-14:44:05.489|56=T1DEMO_FIX_QS|55=EUR/USD|262=1-1568400189.195383|268=2|269=0|270=1.107410|271=100000|269=1|270=1.107440|271=1000000|10=180|
20190913-14:44:06.036275000 : 8=FIX.4.4|9=184|35=W|34=86|49=FIXUAT3-QUOTE.FORTEX.COM|52=20190913-14:44:05.946|56=T1DEMO_FIX_QS|55=EUR/USD|262=1-1568400189.195383|268=2|269=0|270=1.107410|271=1000000|269=1|270=1.107440|271=1000000|10=228|
20190913-14:44:06.496424000 : 8=FIX.4.4|9=183|35=W|34=87|49=FIXUAT3-QUOTE.FORTEX.COM|52=20190913-14:44:06.405|56=T1DEMO_FIX_QS|55=EUR/USD|262=1-1568400189.195383|268=2|269=0|270=1.107440|271=1000000|269=1|270=1.107460|271=100000|10=176|
20190913-14:44:07.388436000 : 8=FIX.4.4|9=183|35=W|34=88|49=FIXUAT3-QUOTE.FORTEX.COM|52=20190913-14:44:06.895|56=T1DEMO_FIX_QS|55=EUR/USD|262=1-1568400189.195383|268=2|269=0|270=1.107430|271=100000|269=1|270=1.107460|271=1000000|10=189|
20190913-14:44:07.483457000 : 8=FIX.4.4|9=182|35=W|34=89|49=FIXUAT3-QUOTE.FORTEX.COM|52=20190913-14:44:07.383|56=T1DEMO_FIX_QS|55=EUR/USD|262=1-1568400189.195383|268=2|269=0|270=1.107430|271=100000|269=1|270=1.107460|271=100000|10=134|
20190913-14:44:07.962784000 : 8=FIX.4.4|9=183|35=W|34=90|49=FIXUAT3-QUOTE.FORTEX.COM|52=20190913-14:44:07.862|56=T1DEMO_FIX_QS|55=EUR/USD|262=1-1568400189.195383|268=2|269=0|270=1.107440|271=100000|269=1|270=1.107460|271=1000000|10=178|
20190913-14:44:08.468732000 : 8=FIX.4.4|9=183|35=W|34=91|49=FIXUAT3-QUOTE.FORTEX.COM|52=20190913-14:44:08.375|56=T1DEMO_FIX_QS|55=EUR/USD|262=1-1568400189.195383|268=2|269=0|270=1.107450|271=100000|269=1|270=1.107470|271=1000000|10=181|
20190913-14:44:08.936060000 : 8=FIX.4.4|9=182|35=W|34=92|49=FIXUAT3-QUOTE.FORTEX.COM|52=20190913-14:44:08.838|56=T1DEMO_FIX_QS|55=EUR/USD|262=1-1568400189.195383|268=2|269=0|270=1.107450|271=100000|269=1|270=1.107480|271=100000|10=138|
20190913-14:44:09.392630000 : 8=FIX.4.4|9=183|35=W|34=93|49=FIXUAT3-QUOTE.FORTEX.COM|52=20190913-14:44:09.297|56=T1DEMO_FIX_QS|55=EUR/USD|262=1-1568400189.195383|268=2|269=0|270=1.107450|271=100000|269=1|270=1.107480|271=1000000|10=188|
20190913-14:44:09.393402000 : 8=FIX.4.4|9=80|35=0|49=T1DEMO_FIX_QS|56=FIXUAT3-QUOTE.FORTEX.COM|34=4|52=20190913-14:44:09.393|10=170|
20190913-14:44:10.272573000 : 8=FIX.4.4|9=182|35=W|34=94|49=FIXUAT3-QUOTE.FORTEX.COM|52=20190913-14:44:10.179|56=T1DEMO_FIX_QS|55=EUR/USD|262=1-1568400189.195383|268=2|269=0|270=1.107450|271=100000|269=1|270=1.107480|271=100000|10=131|
20190913-14:44:10.717378000 : 8=FIX.4.4|9=183|35=W|34=95|49=FIXUAT3-QUOTE.FORTEX.COM|52=20190913-14:44:10.620|56=T1DEMO_FIX_QS|55=EUR/USD|262=1-1568400189.195383|268=2|269=0|270=1.107450|271=100000|269=1|270=1.107480|271=1000000|10=172|
20190913-14:44:11.668929000 : 8=FIX.4.4|9=182|35=W|34=96|49=FIXUAT3-QUOTE.FORTEX.COM|52=20190913-14:44:11.568|56=T1DEMO_FIX_QS|55=EUR/USD|262=1-1568400189.195383|268=2|269=0|270=1.107430|271=100000|269=1|270=1.107460|271=500000|10=136|
20190913-14:44:12.868943000 : 8=FIX.4.4|9=182|35=W|34=97|49=FIXUAT3-QUOTE.FORTEX.COM|52=20190913-14:44:11.971|56=T1DEMO_FIX_QS|55=EUR/USD|262=1-1568400189.195383|268=2|269=0|270=1.107430|271=500000|269=1|270=1.107450|271=100000|10=134|
20190913-14:44:12.886357000 : 8=FIX.4.4|9=182|35=W|34=98|49=FIXUAT3-QUOTE.FORTEX.COM|52=20190913-14:44:12.361|56=T1DEMO_FIX_QS|55=EUR/USD|262=1-1568400189.195383|268=2|269=0|270=1.107420|271=100000|269=1|270=1.107440|271=250000|10=129|
20190913-14:44:12.901466000 : 8=FIX.4.4|9=183|35=W|34=99|49=FIXUAT3-QUOTE.FORTEX.COM|52=20190913-14:44:12.741|56=T1DEMO_FIX_QS|55=EUR/USD|262=1-1568400189.195383|268=2|269=0|270=1.107400|271=100000|269=1|270=1.107430|271=1000000|10=172|
20190913-14:44:16.398061000 : 8=FIX.4.4|9=183|35=W|34=100|49=FIXUAT3-QUOTE.FORTEX.COM|52=20190913-14:44:16.304|56=T1DEMO_FIX_QS|55=EUR/USD|262=1-1568400189.195383|268=2|269=0|270=1.107400|271=100000|269=1|270=1.107430|271=100000|10=154|
20190913-14:44:17.924225000 : 8=FIX.4.4|9=184|35=W|34=101|49=FIXUAT3-QUOTE.FORTEX.COM|52=20190913-14:44:17.759|56=T1DEMO_FIX_QS|55=EUR/USD|262=1-1568400189.195383|268=2|269=0|270=1.107400|271=100000|269=1|270=1.107420|271=1000000|10=218|
20190913-14:44:18.434383000 : 8=FIX.4.4|9=183|35=W|34=102|49=FIXUAT3-QUOTE.FORTEX.COM|52=20190913-14:44:18.239|56=T1DEMO_FIX_QS|55=EUR/USD|262=1-1568400189.195383|268=2|269=0|270=1.107400|271=100000|269=1|270=1.107430|271=100000|10=165|
20190913-14:44:21.893010000 : 8=FIX.4.4|9=184|35=W|34=103|49=FIXUAT3-QUOTE.FORTEX.COM|52=20190913-14:44:21.802|56=T1DEMO_FIX_QS|55=EUR/USD|262=1-1568400189.195383|268=2|269=0|270=1.107400|271=1000000|269=1|270=1.107430|271=100000|10=205|
20190913-14:44:22.808226000 : 8=FIX.4.4|9=183|35=W|34=104|49=FIXUAT3-QUOTE.FORTEX.COM|52=20190913-14:44:22.711|56=T1DEMO_FIX_QS|55=EUR/USD|262=1-1568400189.195383|268=2|269=0|270=1.107400|271=250000|269=1|270=1.107430|271=100000|10=163|
20190913-14:44:23.292595000 : 8=FIX.4.4|9=184|35=W|34=105|49=FIXUAT3-QUOTE.FORTEX.COM|52=20190913-14:44:23.193|56=T1DEMO_FIX_QS|55=EUR/USD|262=1-1568400189.195383|268=2|269=0|270=1.107410|271=1000000|269=1|270=1.107440|271=500000|10=218|
20190913-14:44:23.764730000 : 8=FIX.4.4|9=184|35=W|34=106|49=FIXUAT3-QUOTE.FORTEX.COM|52=20190913-14:44:23.658|56=T1DEMO_FIX_QS|55=EUR/USD|262=1-1568400189.195383|268=2|269=0|270=1.107410|271=250000|269=1|270=1.107440|271=1000000|10=227|
20190913-14:44:24.587422000 : 8=FIX.4.4|9=185|35=W|34=107|49=FIXUAT3-QUOTE.FORTEX.COM|52=20190913-14:44:24.094|56=T1DEMO_FIX_QS|55=EUR/USD|262=1-1568400189.195383|268=2|269=0|270=1.107420|271=1000000|269=1|270=1.107450|271=1000000|10=012|
20190913-14:44:24.636106000 : 8=FIX.4.4|9=184|35=W|34=108|49=FIXUAT3-QUOTE.FORTEX.COM|52=20190913-14:44:24.533|56=T1DEMO_FIX_QS|55=EUR/USD|262=1-1568400189.195383|268=2|269=0|270=1.107460|271=100000|269=1|270=1.107480|271=1000000|10=225|
20190913-14:44:25.535274000 : 8=FIX.4.4|9=183|35=W|34=109|49=FIXUAT3-QUOTE.FORTEX.COM|52=20190913-14:44:25.436|56=T1DEMO_FIX_QS|55=EUR/USD|262=1-1568400189.195383|268=2|269=0|270=1.107450|271=100000|269=1|270=1.107480|271=100000|10=179|
20190913-14:44:26.809701000 : 8=FIX.4.4|9=184|35=W|34=110|49=FIXUAT3-QUOTE.FORTEX.COM|52=20190913-14:44:26.318|56=T1DEMO_FIX_QS|55=EUR/USD|262=1-1568400189.195383|268=2|269=0|270=1.107450|271=100000|269=1|270=1.107480|271=1000000|10=220|
20190913-14:44:26.902664000 : 8=FIX.4.4|9=184|35=W|34=111|49=FIXUAT3-QUOTE.FORTEX.COM|52=20190913-14:44:26.796|56=T1DEMO_FIX_QS|55=EUR/USD|262=1-1568400189.195383|268=2|269=0|270=1.107460|271=100000|269=1|270=1.107480|271=1000000|10=232|
20190913-14:44:29.245754000 : 8=FIX.4.4|9=183|35=W|34=112|49=FIXUAT3-QUOTE.FORTEX.COM|52=20190913-14:44:29.146|56=T1DEMO_FIX_QS|55=EUR/USD|262=1-1568400189.195383|268=2|269=0|270=1.107450|271=100000|269=1|270=1.107480|271=100000|10=175|
20190913-14:44:32.394016000 : 8=FIX.4.4|9=183|35=W|34=113|49=FIXUAT3-QUOTE.FORTEX.COM|52=20190913-14:44:31.905|56=T1DEMO_FIX_QS|55=EUR/USD|262=1-1568400189.195383|268=2|269=0|270=1.107460|271=100000|269=1|270=1.107480|271=500000|10=177|
20190913-14:44:32.928512000 : 8=FIX.4.4|9=184|35=W|34=114|49=FIXUAT3-QUOTE.FORTEX.COM|52=20190913-14:44:32.830|56=T1DEMO_FIX_QS|55=EUR/USD|262=1-1568400189.195383|268=2|269=0|270=1.107470|271=100000|269=1|270=1.107500|271=1000000|10=215|
20190913-14:44:34.164185000 : 8=FIX.4.4|9=183|35=W|34=115|49=FIXUAT3-QUOTE.FORTEX.COM|52=20190913-14:44:33.281|56=T1DEMO_FIX_QS|55=EUR/USD|262=1-1568400189.195383|268=2|269=0|270=1.107470|271=100000|269=1|270=1.107500|271=100000|10=168|
20190913-14:44:34.710281000 : 8=FIX.4.4|9=184|35=W|34=116|49=FIXUAT3-QUOTE.FORTEX.COM|52=20190913-14:44:34.620|56=T1DEMO_FIX_QS|55=EUR/USD|262=1-1568400189.195383|268=2|269=0|270=1.107470|271=100000|269=1|270=1.107500|271=1000000|10=216|
20190913-14:44:35.175972000 : 8=FIX.4.4|9=183|35=W|34=117|49=FIXUAT3-QUOTE.FORTEX.COM|52=20190913-14:44:35.086|56=T1DEMO_FIX_QS|55=EUR/USD|262=1-1568400189.195383|268=2|269=0|270=1.107470|271=100000|269=1|270=1.107500|271=100000|10=175|
20190913-14:44:37.034232000 : 8=FIX.4.4|9=184|35=W|34=118|49=FIXUAT3-QUOTE.FORTEX.COM|52=20190913-14:44:36.933|56=T1DEMO_FIX_QS|55=EUR/USD|262=1-1568400189.195383|268=2|269=0|270=1.107470|271=100000|269=1|270=1.107500|271=1000000|10=227|
20190913-14:44:37.543711000 : 8=FIX.4.4|9=184|35=W|34=119|49=FIXUAT3-QUOTE.FORTEX.COM|52=20190913-14:44:37.454|56=T1DEMO_FIX_QS|55=EUR/USD|262=1-1568400189.195383|268=2|269=0|270=1.107470|271=1000000|269=1|270=1.107500|271=100000|10=227|
20190913-14:44:37.989592000 : 8=FIX.4.4|9=183|35=W|34=120|49=FIXUAT3-QUOTE.FORTEX.COM|52=20190913-14:44:37.899|56=T1DEMO_FIX_QS|55=EUR/USD|262=1-1568400189.195383|268=2|269=0|270=1.107460|271=100000|269=1|270=1.107490|271=100000|10=190|
20190913-14:44:38.825458000 : 8=FIX.4.4|9=184|35=W|34=121|49=FIXUAT3-QUOTE.FORTEX.COM|52=20190913-14:44:38.346|56=T1DEMO_FIX_QS|55=EUR/USD|262=1-1568400189.195383|268=2|269=0|270=1.107460|271=1000000|269=1|270=1.107490|271=100000|10=228|
20190913-14:44:39.140949000 : 8=FIX.4.4|9=80|35=0|49=T1DEMO_FIX_QS|56=FIXUAT3-QUOTE.FORTEX.COM|34=5|52=20190913-14:44:39.140|10=164|
20190913-14:44:41.293767000 : 8=FIX.4.4|9=184|35=W|34=122|49=FIXUAT3-QUOTE.FORTEX.COM|52=20190913-14:44:41.199|56=T1DEMO_FIX_QS|55=EUR/USD|262=1-1568400189.195383|268=2|269=0|270=1.107470|271=100000|269=1|270=1.107490|271=1000000|10=230|
20190913-14:44:41.760119000 : 8=FIX.4.4|9=183|35=W|34=123|49=FIXUAT3-QUOTE.FORTEX.COM|52=20190913-14:44:41.670|56=T1DEMO_FIX_QS|55=EUR/USD|262=1-1568400189.195383|268=2|269=0|270=1.107460|271=500000|269=1|270=1.107490|271=100000|10=179|
20190913-14:44:42.218178000 : 8=FIX.4.4|9=183|35=W|34=124|49=FIXUAT3-QUOTE.FORTEX.COM|52=20190913-14:44:42.128|56=T1DEMO_FIX_QS|55=EUR/USD|262=1-1568400189.195383|268=2|269=0|270=1.107460|271=100000|269=1|270=1.107490|271=100000|10=175|
20190913-14:44:42.674994000 : 8=FIX.4.4|9=183|35=W|34=125|49=FIXUAT3-QUOTE.FORTEX.COM|52=20190913-14:44:42.584|56=T1DEMO_FIX_QS|55=EUR/USD|262=1-1568400189.195383|268=2|269=0|270=1.107450|271=100000|269=1|270=1.107480|271=100000|10=180|
20190913-14:44:43.216561000 : 8=FIX.4.4|9=184|35=W|34=126|49=FIXUAT3-QUOTE.FORTEX.COM|52=20190913-14:44:43.103|56=T1DEMO_FIX_QS|55=EUR/USD|262=1-1568400189.195383|268=2|269=0|270=1.107450|271=100000|269=1|270=1.107470|271=1000000|10=217|
20190913-14:44:43.593314000 : 8=FIX.4.4|9=185|35=W|34=127|49=FIXUAT3-QUOTE.FORTEX.COM|52=20190913-14:44:43.495|56=T1DEMO_FIX_QS|55=EUR/USD|262=1-1568400189.195383|268=2|269=0|270=1.107460|271=1000000|269=1|270=1.107490|271=1000000|10=028|
20190913-14:44:44.000455000 : 8=FIX.4.4|9=184|35=W|34=128|49=FIXUAT3-QUOTE.FORTEX.COM|52=20190913-14:44:43.911|56=T1DEMO_FIX_QS|55=EUR/USD|262=1-1568400189.195383|268=2|269=0|270=1.107460|271=500000|269=1|270=1.107490|271=1000000|10=233|
20190913-14:44:44.456418000 : 8=FIX.4.4|9=185|35=W|34=129|49=FIXUAT3-QUOTE.FORTEX.COM|52=20190913-14:44:44.367|56=T1DEMO_FIX_QS|55=EUR/USD|262=1-1568400189.195383|268=2|269=0|270=1.107460|271=1000000|269=1|270=1.107490|271=1000000|10=029|
20190913-14:44:45.838314000 : 8=FIX.4.4|9=183|35=W|34=130|49=FIXUAT3-QUOTE.FORTEX.COM|52=20190913-14:44:45.743|56=T1DEMO_FIX_QS|55=EUR/USD|262=1-1568400189.195383|268=2|269=0|270=1.107470|271=100000|269=1|270=1.107500|271=100000|10=171|
20190913-14:44:46.273550000 : 8=FIX.4.4|9=184|35=W|34=131|49=FIXUAT3-QUOTE.FORTEX.COM|52=20190913-14:44:46.183|56=T1DEMO_FIX_QS|55=EUR/USD|262=1-1568400189.195383|268=2|269=0|270=1.107470|271=100000|269=1|270=1.107500|271=1000000|10=220|
20190913-14:44:47.644891000 : 8=FIX.4.4|9=184|35=W|34=132|49=FIXUAT3-QUOTE.FORTEX.COM|52=20190913-14:44:47.546|56=T1DEMO_FIX_QS|55=EUR/USD|262=1-1568400189.195383|268=2|269=0|270=1.107460|271=1000000|269=1|270=1.107490|271=100000|10=232|
20190913-14:44:48.214014000 : 8=FIX.4.4|9=183|35=W|34=133|49=FIXUAT3-QUOTE.FORTEX.COM|52=20190913-14:44:47.992|56=T1DEMO_FIX_QS|55=EUR/USD|262=1-1568400189.195383|268=2|269=0|270=1.107460|271=100000|269=1|270=1.107490|271=100000|10=189|
20190913-14:44:48.958755000 : 8=FIX.4.4|9=184|35=W|34=134|49=FIXUAT3-QUOTE.FORTEX.COM|52=20190913-14:44:48.856|56=T1DEMO_FIX_QS|55=EUR/USD|262=1-1568400189.195383|268=2|269=0|270=1.107470|271=100000|269=1|270=1.107490|271=1000000|10=240|
20190913-14:44:49.840182000 : 8=FIX.4.4|9=184|35=W|34=135|49=FIXUAT3-QUOTE.FORTEX.COM|52=20190913-14:44:49.751|56=T1DEMO_FIX_QS|55=EUR/USD|262=1-1568400189.195383|268=2|269=0|270=1.107460|271=1000000|269=1|270=1.107490|271=100000|10=235|
20190913-14:44:50.754187000 : 8=FIX.4.4|9=185|35=W|34=136|49=FIXUAT3-QUOTE.FORTEX.COM|52=20190913-14:44:50.665|56=T1DEMO_FIX_QS|55=EUR/USD|262=1-1568400189.195383|268=2|269=0|270=1.107460|271=1000000|269=1|270=1.107490|271=1000000|10=025|
20190913-14:44:52.551754000 : 8=FIX.4.4|9=184|35=W|34=137|49=FIXUAT3-QUOTE.FORTEX.COM|52=20190913-14:44:52.460|56=T1DEMO_FIX_QS|55=EUR/USD|262=1-1568400189.195383|268=2|269=0|270=1.107470|271=100000|269=1|270=1.107490|271=1000000|10=229|
20190913-14:44:54.960320000 : 8=FIX.4.4|9=184|35=W|34=138|49=FIXUAT3-QUOTE.FORTEX.COM|52=20190913-14:44:54.867|56=T1DEMO_FIX_QS|55=EUR/USD|262=1-1568400189.195383|268=2|269=0|270=1.107460|271=1000000|269=1|270=1.107490|271=100000|10=242|
20190913-14:44:55.453126000 : 8=FIX.4.4|9=184|35=W|34=139|49=FIXUAT3-QUOTE.FORTEX.COM|52=20190913-14:44:55.361|56=T1DEMO_FIX_QS|55=EUR/USD|262=1-1568400189.195383|268=2|269=0|270=1.107470|271=100000|269=1|270=1.107490|271=1000000|10=234|
20190913-14:44:55.908421000 : 8=FIX.4.4|9=184|35=W|34=140|49=FIXUAT3-QUOTE.FORTEX.COM|52=20190913-14:44:55.818|56=T1DEMO_FIX_QS|55=EUR/USD|262=1-1568400189.195383|268=2|269=0|270=1.107460|271=1000000|269=1|270=1.107490|271=100000|10=232|
20190913-14:44:56.837212000 : 8=FIX.4.4|9=183|35=W|34=141|49=FIXUAT3-QUOTE.FORTEX.COM|52=20190913-14:44:56.746|56=T1DEMO_FIX_QS|55=EUR/USD|262=1-1568400189.195383|268=2|269=0|270=1.107420|271=250000|269=1|270=1.107440|271=100000|10=182|
20190913-14:44:57.322072000 : 8=FIX.4.4|9=185|35=W|34=142|49=FIXUAT3-QUOTE.FORTEX.COM|52=20190913-14:44:57.233|56=T1DEMO_FIX_QS|55=EUR/USD|262=1-1568400189.195383|268=2|269=0|270=1.107410|271=1000000|269=1|270=1.107440|271=1000000|10=010|
20190913-14:44:58.227259000 : 8=FIX.4.4|9=183|35=W|34=143|49=FIXUAT3-QUOTE.FORTEX.COM|52=20190913-14:44:58.138|56=T1DEMO_FIX_QS|55=EUR/USD|262=1-1568400189.195383|268=2|269=0|270=1.107420|271=100000|269=1|270=1.107440|271=500000|10=179|
20190913-14:44:58.685227000 : 8=FIX.4.4|9=185|35=W|34=144|49=FIXUAT3-QUOTE.FORTEX.COM|52=20190913-14:44:58.595|56=T1DEMO_FIX_QS|55=EUR/USD|262=1-1568400189.195383|268=2|269=0|270=1.107440|271=1000000|269=1|270=1.107460|271=1000000|10=029|
20190913-14:44:59.138372000 : 8=FIX.4.4|9=184|35=W|34=145|49=FIXUAT3-QUOTE.FORTEX.COM|52=20190913-14:44:59.049|56=T1DEMO_FIX_QS|55=EUR/USD|262=1-1568400189.195383|268=2|269=0|270=1.107440|271=100000|269=1|270=1.107460|271=1000000|10=232|
20190913-14:45:00.466796000 : 8=FIX.4.4|9=184|35=W|34=146|49=FIXUAT3-QUOTE.FORTEX.COM|52=20190913-14:45:00.376|56=T1DEMO_FIX_QS|55=EUR/USD|262=1-1568400189.195383|268=2|269=0|270=1.107440|271=1000000|269=1|270=1.107460|271=500000|10=227|
20190913-14:45:00.922379000 : 8=FIX.4.4|9=184|35=W|34=147|49=FIXUAT3-QUOTE.FORTEX.COM|52=20190913-14:45:00.833|56=T1DEMO_FIX_QS|55=EUR/USD|262=1-1568400189.195383|268=2|269=0|270=1.107430|271=1000000|269=1|270=1.107460|271=100000|10=221|
20190913-14:45:01.376311000 : 8=FIX.4.4|9=183|35=W|34=148|49=FIXUAT3-QUOTE.FORTEX.COM|52=20190913-14:45:01.281|56=T1DEMO_FIX_QS|55=EUR/USD|262=1-1568400189.195383|268=2|269=0|270=1.107390|271=500000|269=1|270=1.107420|271=100000|10=176|
20190913-14:45:01.836925000 : 8=FIX.4.4|9=184|35=W|34=149|49=FIXUAT3-QUOTE.FORTEX.COM|52=20190913-14:45:01.729|56=T1DEMO_FIX_QS|55=EUR/USD|262=1-1568400189.195383|268=2|269=0|270=1.107380|271=100000|269=1|270=1.107410|271=1000000|10=227|
20190913-14:45:02.292561000 : 8=FIX.4.4|9=183|35=W|34=150|49=FIXUAT3-QUOTE.FORTEX.COM|52=20190913-14:45:02.185|56=T1DEMO_FIX_QS|55=EUR/USD|262=1-1568400189.195383|268=2|269=0|270=1.107340|271=100000|269=1|270=1.107370|271=100000|10=168|
20190913-14:45:02.708546000 : 8=FIX.4.4|9=185|35=W|34=151|49=FIXUAT3-QUOTE.FORTEX.COM|52=20190913-14:45:02.618|56=T1DEMO_FIX_QS|55=EUR/USD|262=1-1568400189.195383|268=2|269=0|270=1.107350|271=1000000|269=1|270=1.107370|271=1000000|10=013|
20190913-14:45:03.172634000 : 8=FIX.4.4|9=183|35=W|34=152|49=FIXUAT3-QUOTE.FORTEX.COM|52=20190913-14:45:03.078|56=T1DEMO_FIX_QS|55=EUR/USD|262=1-1568400189.195383|268=2|269=0|270=1.107350|271=100000|269=1|270=1.107370|271=250000|10=179|
20190913-14:45:03.628068000 : 8=FIX.4.4|9=183|35=W|34=153|49=FIXUAT3-QUOTE.FORTEX.COM|52=20190913-14:45:03.528|56=T1DEMO_FIX_QS|55=EUR/USD|262=1-1568400189.195383|268=2|269=0|270=1.107310|271=100000|269=1|270=1.107340|271=100000|10=167|
20190913-14:45:04.088119000 : 8=FIX.4.4|9=184|35=W|34=154|49=FIXUAT3-QUOTE.FORTEX.COM|52=20190913-14:45:03.989|56=T1DEMO_FIX_QS|55=EUR/USD|262=1-1568400189.195383|268=2|269=0|270=1.107300|271=100000|269=1|270=1.107320|271=1000000|10=225|
20190913-14:45:04.991946000 : 8=FIX.4.4|9=184|35=W|34=155|49=FIXUAT3-QUOTE.FORTEX.COM|52=20190913-14:45:04.893|56=T1DEMO_FIX_QS|55=EUR/USD|262=1-1568400189.195383|268=2|269=0|270=1.107300|271=100000|269=1|270=1.107330|271=1000000|10=222|
20190913-14:45:05.432069000 : 8=FIX.4.4|9=184|35=W|34=156|49=FIXUAT3-QUOTE.FORTEX.COM|52=20190913-14:45:05.329|56=T1DEMO_FIX_QS|55=EUR/USD|262=1-1568400189.195383|268=2|269=0|270=1.107310|271=100000|269=1|270=1.107340|271=1000000|10=220|
20190913-14:45:05.859814000 : 8=FIX.4.4|9=184|35=W|34=157|49=FIXUAT3-QUOTE.FORTEX.COM|52=20190913-14:45:05.763|56=T1DEMO_FIX_QS|55=EUR/USD|262=1-1568400189.195383|268=2|269=0|270=1.107320|271=100000|269=1|270=1.107340|271=1000000|10=224|
20190913-14:45:06.306594000 : 8=FIX.4.4|9=184|35=W|34=158|49=FIXUAT3-QUOTE.FORTEX.COM|52=20190913-14:45:06.206|56=T1DEMO_FIX_QS|55=EUR/USD|262=1-1568400189.195383|268=2|269=0|270=1.107330|271=1000000|269=1|270=1.107350|271=500000|10=224|
20190913-14:45:06.747932000 : 8=FIX.4.4|9=184|35=W|34=159|49=FIXUAT3-QUOTE.FORTEX.COM|52=20190913-14:45:06.658|56=T1DEMO_FIX_QS|55=EUR/USD|262=1-1568400189.195383|268=2|269=0|270=1.107370|271=100000|269=1|270=1.107400|271=1000000|10=232|
20190913-14:45:07.224613000 : 8=FIX.4.4|9=184|35=W|34=160|49=FIXUAT3-QUOTE.FORTEX.COM|52=20190913-14:45:07.134|56=T1DEMO_FIX_QS|55=EUR/USD|262=1-1568400189.195383|268=2|269=0|270=1.107360|271=1000000|269=1|270=1.107390|271=100000|10=221|
20190913-14:45:07.680842000 : 8=FIX.4.4|9=185|35=W|34=161|49=FIXUAT3-QUOTE.FORTEX.COM|52=20190913-14:45:07.584|56=T1DEMO_FIX_QS|55=EUR/USD|262=1-1568400189.195383|268=2|269=0|270=1.107360|271=1000000|269=1|270=1.107390|271=1000000|10=024|
20190913-14:45:08.098015000 : 8=FIX.4.4|9=183|35=W|34=162|49=FIXUAT3-QUOTE.FORTEX.COM|52=20190913-14:45:08.009|56=T1DEMO_FIX_QS|55=EUR/USD|262=1-1568400189.195383|268=2|269=0|270=1.107350|271=250000|269=1|270=1.107380|271=100000|10=180|
20190913-14:45:08.520149000 : 8=FIX.4.4|9=184|35=W|34=163|49=FIXUAT3-QUOTE.FORTEX.COM|52=20190913-14:45:08.430|56=T1DEMO_FIX_QS|55=EUR/USD|262=1-1568400189.195383|268=2|269=0|270=1.107340|271=100000|269=1|270=1.107370|271=1000000|10=220|
20190913-14:45:08.987482000 : 8=FIX.4.4|9=184|35=W|34=164|49=FIXUAT3-QUOTE.FORTEX.COM|52=20190913-14:45:08.886|56=T1DEMO_FIX_QS|55=EUR/USD|262=1-1568400189.195383|268=2|269=0|270=1.107330|271=1000000|269=1|270=1.107350|271=100000|10=233|
20190913-14:45:09.200836000 : 8=FIX.4.4|9=80|35=0|49=T1DEMO_FIX_QS|56=FIXUAT3-QUOTE.FORTEX.COM|34=6|52=20190913-14:45:09.200|10=160|
20190913-14:45:09.500312000 : 8=FIX.4.4|9=183|35=W|34=165|49=FIXUAT3-QUOTE.FORTEX.COM|52=20190913-14:45:09.397|56=T1DEMO_FIX_QS|55=EUR/USD|262=1-1568400189.195383|268=2|269=0|270=1.107300|271=100000|269=1|270=1.107330|271=100000|10=178|
20190913-14:45:09.964535000 : 8=FIX.4.4|9=183|35=W|34=166|49=FIXUAT3-QUOTE.FORTEX.COM|52=20190913-14:45:09.862|56=T1DEMO_FIX_QS|55=EUR/USD|262=1-1568400189.195383|268=2|269=0|270=1.107260|271=500000|269=1|270=1.107290|271=100000|10=190|
20190913-14:45:10.451778000 : 8=FIX.4.4|9=183|35=W|34=167|49=FIXUAT3-QUOTE.FORTEX.COM|52=20190913-14:45:10.340|56=T1DEMO_FIX_QS|55=EUR/USD|262=1-1568400189.195383|268=2|269=0|270=1.107290|271=100000|269=1|270=1.107310|271=500000|10=170|
20190913-14:45:10.940473000 : 8=FIX.4.4|9=184|35=W|34=168|49=FIXUAT3-QUOTE.FORTEX.COM|52=20190913-14:45:10.844|56=T1DEMO_FIX_QS|55=EUR/USD|262=1-1568400189.195383|268=2|269=0|270=1.107280|271=1000000|269=1|270=1.107310|271=100000|10=224|
20190913-14:45:11.490445000 : 8=FIX.4.4|9=184|35=W|34=169|49=FIXUAT3-QUOTE.FORTEX.COM|52=20190913-14:45:11.400|56=T1DEMO_FIX_QS|55=EUR/USD|262=1-1568400189.195383|268=2|269=0|270=1.107290|271=1000000|269=1|270=1.107320|271=100000|10=216|
20190913-14:45:11.984739000 : 8=FIX.4.4|9=185|35=W|34=170|49=FIXUAT3-QUOTE.FORTEX.COM|52=20190913-14:45:11.884|56=T1DEMO_FIX_QS|55=EUR/USD|262=1-1568400189.195383|268=2|269=0|270=1.107280|271=1000000|269=1|270=1.107310|271=1000000|10=015|
20190913-14:45:12.442133000 : 8=FIX.4.4|9=183|35=W|34=171|49=FIXUAT3-QUOTE.FORTEX.COM|52=20190913-14:45:12.353|56=T1DEMO_FIX_QS|55=EUR/USD|262=1-1568400189.195383|268=2|269=0|270=1.107300|271=100000|269=1|270=1.107330|271=100000|10=161|
20190913-14:45:13.429925000 : 8=FIX.4.4|9=183|35=W|34=172|49=FIXUAT3-QUOTE.FORTEX.COM|52=20190913-14:45:13.340|56=T1DEMO_FIX_QS|55=EUR/USD|262=1-1568400189.195383|268=2|269=0|270=1.107310|271=100000|269=1|270=1.107340|271=100000|10=161|
20190913-14:45:14.374015000 : 8=FIX.4.4|9=184|35=W|34=173|49=FIXUAT3-QUOTE.FORTEX.COM|52=20190913-14:45:14.272|56=T1DEMO_FIX_QS|55=EUR/USD|262=1-1568400189.195383|268=2|269=0|270=1.107310|271=1000000|269=1|270=1.107340|271=100000|10=216|
20190913-14:45:14.872741000 : 8=FIX.4.4|9=185|35=W|34=174|49=FIXUAT3-QUOTE.FORTEX.COM|52=20190913-14:45:14.771|56=T1DEMO_FIX_QS|55=EUR/USD|262=1-1568400189.195383|268=2|269=0|270=1.107310|271=1000000|269=1|270=1.107340|271=1000000|10=014|
20190913-14:45:15.328197000 : 8=FIX.4.4|9=184|35=W|34=175|49=FIXUAT3-QUOTE.FORTEX.COM|52=20190913-14:45:15.237|56=T1DEMO_FIX_QS|55=EUR/USD|262=1-1568400189.195383|268=2|269=0|270=1.107310|271=100000|269=1|270=1.107340|271=1000000|10=220|
20190913-14:45:15.800425000 : 8=FIX.4.4|9=183|35=W|34=176|49=FIXUAT3-QUOTE.FORTEX.COM|52=20190913-14:45:15.702|56=T1DEMO_FIX_QS|55=EUR/USD|262=1-1568400189.195383|268=2|269=0|270=1.107300|271=100000|269=1|270=1.107330|271=100000|10=167|
20190913-14:45:16.717086000 : 8=FIX.4.4|9=183|35=W|34=177|49=FIXUAT3-QUOTE.FORTEX.COM|52=20190913-14:45:16.622|56=T1DEMO_FIX_QS|55=EUR/USD|262=1-1568400189.195383|268=2|269=0|270=1.107310|271=100000|269=1|270=1.107340|271=100000|10=172|
20190913-14:45:17.232520000 : 8=FIX.4.4|9=184|35=W|34=178|49=FIXUAT3-QUOTE.FORTEX.COM|52=20190913-14:45:17.140|56=T1DEMO_FIX_QS|55=EUR/USD|262=1-1568400189.195383|268=2|269=0|270=1.107310|271=100000|269=1|270=1.107340|271=1000000|10=218|
20190913-14:45:18.100625000 : 8=FIX.4.4|9=185|35=W|34=179|49=FIXUAT3-QUOTE.FORTEX.COM|52=20190913-14:45:17.985|56=T1DEMO_FIX_QS|55=EUR/USD|262=1-1568400189.195383|268=2|269=0|270=1.107310|271=1000000|269=1|270=1.107340|271=1000000|10=029|
20190913-14:45:20.755872000 : 8=FIX.4.4|9=183|35=W|34=180|49=FIXUAT3-QUOTE.FORTEX.COM|52=20190913-14:45:20.616|56=T1DEMO_FIX_QS|55=EUR/USD|262=1-1568400189.195383|268=2|269=0|270=1.107310|271=100000|269=1|270=1.107340|271=100000|10=164|
20190913-14:45:21.678211000 : 8=FIX.4.4|9=183|35=W|34=181|49=FIXUAT3-QUOTE.FORTEX.COM|52=20190913-14:45:21.558|56=T1DEMO_FIX_QS|55=EUR/USD|262=1-1568400189.195383|268=2|269=0|270=1.107320|271=100000|269=1|270=1.107350|271=500000|10=177|
20190913-14:45:22.121250000 : 8=FIX.4.4|9=184|35=W|34=182|49=FIXUAT3-QUOTE.FORTEX.COM|52=20190913-14:45:22.019|56=T1DEMO_FIX_QS|55=EUR/USD|262=1-1568400189.195383|268=2|269=0|270=1.107320|271=1000000|269=1|270=1.107350|271=500000|10=220|
20190913-14:45:23.485691000 : 8=FIX.4.4|9=183|35=W|34=183|49=FIXUAT3-QUOTE.FORTEX.COM|52=20190913-14:45:23.392|56=T1DEMO_FIX_QS|55=EUR/USD|262=1-1568400189.195383|268=2|269=0|270=1.107330|271=100000|269=1|270=1.107360|271=100000|10=175|
20190913-14:45:24.772016000 : 8=FIX.4.4|9=184|35=W|34=184|49=FIXUAT3-QUOTE.FORTEX.COM|52=20190913-14:45:24.681|56=T1DEMO_FIX_QS|55=EUR/USD|262=1-1568400189.195383|268=2|269=0|270=1.107340|271=100000|269=1|270=1.107360|271=1000000|10=228|
20190913-14:45:25.232544000 : 8=FIX.4.4|9=184|35=W|34=185|49=FIXUAT3-QUOTE.FORTEX.COM|52=20190913-14:45:25.141|56=T1DEMO_FIX_QS|55=EUR/USD|262=1-1568400189.195383|268=2|269=0|270=1.107310|271=100000|269=1|270=1.107340|271=1000000|10=216|
20190913-14:45:25.650803000 : 8=FIX.4.4|9=184|35=W|34=186|49=FIXUAT3-QUOTE.FORTEX.COM|52=20190913-14:45:25.561|56=T1DEMO_FIX_QS|55=EUR/USD|262=1-1568400189.195383|268=2|269=0|270=1.107300|271=1000000|269=1|270=1.107330|271=100000|10=221|
20190913-14:45:26.120708000 : 8=FIX.4.4|9=184|35=W|34=187|49=FIXUAT3-QUOTE.FORTEX.COM|52=20190913-14:45:26.031|56=T1DEMO_FIX_QS|55=EUR/USD|262=1-1568400189.195383|268=2|269=0|270=1.107310|271=100000|269=1|270=1.107340|271=1000000|10=217|
20190913-14:45:27.047654000 : 8=FIX.4.4|9=183|35=W|34=188|49=FIXUAT3-QUOTE.FORTEX.COM|52=20190913-14:45:26.935|56=T1DEMO_FIX_QS|55=EUR/USD|262=1-1568400189.195383|268=2|269=0|270=1.107280|271=500000|269=1|270=1.107300|271=500000|10=192|
20190913-14:45:27.519967000 : 8=FIX.4.4|9=184|35=W|34=189|49=FIXUAT3-QUOTE.FORTEX.COM|52=20190913-14:45:27.416|56=T1DEMO_FIX_QS|55=EUR/USD|262=1-1568400189.195383|268=2|269=0|270=1.107230|271=1000000|269=1|270=1.107260|271=100000|10=229|
20190913-14:45:27.948404000 : 8=FIX.4.4|9=183|35=W|34=190|49=FIXUAT3-QUOTE.FORTEX.COM|52=20190913-14:45:27.847|56=T1DEMO_FIX_QS|55=EUR/USD|262=1-1568400189.195383|268=2|269=0|270=1.107230|271=100000|269=1|270=1.107260|271=500000|10=184|
20190913-14:45:28.383778000 : 8=FIX.4.4|9=184|35=W|34=191|49=FIXUAT3-QUOTE.FORTEX.COM|52=20190913-14:45:28.277|56=T1DEMO_FIX_QS|55=EUR/USD|262=1-1568400189.195383|268=2|269=0|270=1.107230|271=100000|269=1|270=1.107260|271=1000000|10=228|
20190913-14:45:28.818336000 : 8=FIX.4.4|9=183|35=W|34=192|49=FIXUAT3-QUOTE.FORTEX.COM|52=20190913-14:45:28.717|56=T1DEMO_FIX_QS|55=EUR/USD|262=1-1568400189.195383|268=2|269=0|270=1.107220|271=100000|269=1|270=1.107250|271=100000|10=177|
20190913-14:45:29.734079000 : 8=FIX.4.4|9=183|35=W|34=193|49=FIXUAT3-QUOTE.FORTEX.COM|52=20190913-14:45:29.622|56=T1DEMO_FIX_QS|55=EUR/USD|262=1-1568400189.195383|268=2|269=0|270=1.107230|271=250000|269=1|270=1.107260|271=100000|10=182|
20190913-14:45:30.148078000 : 8=FIX.4.4|9=184|35=W|34=194|49=FIXUAT3-QUOTE.FORTEX.COM|52=20190913-14:45:30.057|56=T1DEMO_FIX_QS|55=EUR/USD|262=1-1568400189.195383|268=2|269=0|270=1.107250|271=100000|269=1|270=1.107270|271=1000000|10=223|
20190913-14:45:31.052343000 : 8=FIX.4.4|9=184|35=W|34=195|49=FIXUAT3-QUOTE.FORTEX.COM|52=20190913-14:45:30.956|56=T1DEMO_FIX_QS|55=EUR/USD|262=1-1568400189.195383|268=2|269=0|270=1.107260|271=1000000|269=1|270=1.107290|271=100000|10=235|
20190913-14:45:31.544199000 : 8=FIX.4.4|9=185|35=W|34=196|49=FIXUAT3-QUOTE.FORTEX.COM|52=20190913-14:45:31.437|56=T1DEMO_FIX_QS|55=EUR/USD|262=1-1568400189.195383|268=2|269=0|270=1.107270|271=1000000|269=1|270=1.107300|271=1000000|10=017|
20190913-14:45:31.983992000 : 8=FIX.4.4|9=184|35=W|34=197|49=FIXUAT3-QUOTE.FORTEX.COM|52=20190913-14:45:31.875|56=T1DEMO_FIX_QS|55=EUR/USD|262=1-1568400189.195383|268=2|269=0|270=1.107280|271=100000|269=1|270=1.107300|271=1000000|10=232|
20190913-14:45:32.400405000 : 8=FIX.4.4|9=183|35=W|34=198|49=FIXUAT3-QUOTE.FORTEX.COM|52=20190913-14:45:32.307|56=T1DEMO_FIX_QS|55=EUR/USD|262=1-1568400189.195383|268=2|269=0|270=1.107260|271=700000|269=1|270=1.107290|271=500000|10=191|
20190913-14:45:32.831586000 : 8=FIX.4.4|9=183|35=W|34=199|49=FIXUAT3-QUOTE.FORTEX.COM|52=20190913-14:45:32.742|56=T1DEMO_FIX_QS|55=EUR/USD|262=1-1568400189.195383|268=2|269=0|270=1.107270|271=100000|269=1|270=1.107290|271=500000|10=190|
20190913-14:45:33.319841000 : 8=FIX.4.4|9=183|35=W|34=200|49=FIXUAT3-QUOTE.FORTEX.COM|52=20190913-14:45:33.218|56=T1DEMO_FIX_QS|55=EUR/USD|262=1-1568400189.195383|268=2|269=0|270=1.107250|271=250000|269=1|270=1.107280|271=100000|10=171|
20190913-14:45:34.208280000 : 8=FIX.4.4|9=184|35=W|34=201|49=FIXUAT3-QUOTE.FORTEX.COM|52=20190913-14:45:34.113|56=T1DEMO_FIX_QS|55=EUR/USD|262=1-1568400189.195383|268=2|269=0|270=1.107250|271=100000|269=1|270=1.107280|271=1000000|10=210|
20190913-14:45:34.660516000 : 8=FIX.4.4|9=184|35=W|34=202|49=FIXUAT3-QUOTE.FORTEX.COM|52=20190913-14:45:34.558|56=T1DEMO_FIX_QS|55=EUR/USD|262=1-1568400189.195383|268=2|269=0|270=1.107230|271=1000000|269=1|270=1.107260|271=100000|10=220|
20190913-14:45:35.567651000 : 8=FIX.4.4|9=184|35=W|34=203|49=FIXUAT3-QUOTE.FORTEX.COM|52=20190913-14:45:35.465|56=T1DEMO_FIX_QS|55=EUR/USD|262=1-1568400189.195383|268=2|269=0|270=1.107240|271=100000|269=1|270=1.107260|271=1000000|10=220|
20190913-14:45:36.002350000 : 8=FIX.4.4|9=185|35=W|34=204|49=FIXUAT3-QUOTE.FORTEX.COM|52=20190913-14:45:35.912|56=T1DEMO_FIX_QS|55=EUR/USD|262=1-1568400189.195383|268=2|269=0|270=1.107240|271=1000000|269=1|270=1.107270|271=1000000|10=012|
20190913-14:45:36.928320000 : 8=FIX.4.4|9=183|35=W|34=205|49=FIXUAT3-QUOTE.FORTEX.COM|52=20190913-14:45:36.830|56=T1DEMO_FIX_QS|55=EUR/USD|262=1-1568400189.195383|268=2|269=0|270=1.107260|271=100000|269=1|270=1.107280|271=500000|10=178|
20190913-14:45:37.403153000 : 8=FIX.4.4|9=183|35=W|34=206|49=FIXUAT3-QUOTE.FORTEX.COM|52=20190913-14:45:37.311|56=T1DEMO_FIX_QS|55=EUR/USD|262=1-1568400189.195383|268=2|269=0|270=1.107250|271=700000|269=1|270=1.107280|271=100000|10=175|
20190913-14:45:37.852630000 : 8=FIX.4.4|9=183|35=W|34=207|49=FIXUAT3-QUOTE.FORTEX.COM|52=20190913-14:45:37.753|56=T1DEMO_FIX_QS|55=EUR/USD|262=1-1568400189.195383|268=2|269=0|270=1.107250|271=100000|269=1|270=1.107280|271=100000|10=180|
20190913-14:45:39.225582000 : 8=FIX.4.4|9=183|35=W|34=208|49=FIXUAT3-QUOTE.FORTEX.COM|52=20190913-14:45:39.117|56=T1DEMO_FIX_QS|55=EUR/USD|262=1-1568400189.195383|268=2|269=0|270=1.107250|271=250000|269=1|270=1.107270|271=100000|10=182|
20190913-14:45:39.226846000 : 8=FIX.4.4|9=80|35=0|49=T1DEMO_FIX_QS|56=FIXUAT3-QUOTE.FORTEX.COM|34=7|52=20190913-14:45:39.226|10=172|
20190913-14:45:39.641841000 : 8=FIX.4.4|9=183|35=W|34=209|49=FIXUAT3-QUOTE.FORTEX.COM|52=20190913-14:45:39.548|56=T1DEMO_FIX_QS|55=EUR/USD|262=1-1568400189.195383|268=2|269=0|270=1.107250|271=100000|269=1|270=1.107280|271=100000|10=186|
20190913-14:45:40.107388000 : 8=FIX.4.4|9=185|35=W|34=210|49=FIXUAT3-QUOTE.FORTEX.COM|52=20190913-14:45:39.996|56=T1DEMO_FIX_QS|55=EUR/USD|262=1-1568400189.195383|268=2|269=0|270=1.107240|271=1000000|269=1|270=1.107270|271=1000000|10=025|
20190913-14:45:40.543734000 : 8=FIX.4.4|9=183|35=W|34=211|49=FIXUAT3-QUOTE.FORTEX.COM|52=20190913-14:45:40.443|56=T1DEMO_FIX_QS|55=EUR/USD|262=1-1568400189.195383|268=2|269=0|270=1.107310|271=800000|269=1|270=1.107320|271=500000|10=168|
20190913-14:45:40.993409000 : 8=FIX.4.4|9=183|35=W|34=212|49=FIXUAT3-QUOTE.FORTEX.COM|52=20190913-14:45:40.904|56=T1DEMO_FIX_QS|55=EUR/USD|262=1-1568400189.195383|268=2|269=0|270=1.107300|271=100000|269=1|270=1.107320|271=500000|10=163|
20190913-14:45:42.773550000 : 8=FIX.4.4|9=183|35=W|34=213|49=FIXUAT3-QUOTE.FORTEX.COM|52=20190913-14:45:42.662|56=T1DEMO_FIX_QS|55=EUR/USD|262=1-1568400189.195383|268=2|269=0|270=1.107310|271=250000|269=1|270=1.107330|271=100000|10=171|
20190913-14:45:43.227893000 : 8=FIX.4.4|9=183|35=W|34=214|49=FIXUAT3-QUOTE.FORTEX.COM|52=20190913-14:45:43.138|56=T1DEMO_FIX_QS|55=EUR/USD|262=1-1568400189.195383|268=2|269=0|270=1.107320|271=500000|269=1|270=1.107340|271=500000|10=175|
20190913-14:45:43.684341000 : 8=FIX.4.4|9=184|35=W|34=215|49=FIXUAT3-QUOTE.FORTEX.COM|52=20190913-14:45:43.593|56=T1DEMO_FIX_QS|55=EUR/USD|262=1-1568400189.195383|268=2|269=0|270=1.107330|271=1000000|269=1|270=1.107350|271=100000|10=224|
20190913-14:45:44.138054000 : 8=FIX.4.4|9=183|35=W|34=216|49=FIXUAT3-QUOTE.FORTEX.COM|52=20190913-14:45:44.034|56=T1DEMO_FIX_QS|55=EUR/USD|262=1-1568400189.195383|268=2|269=0|270=1.107390|271=100000|269=1|270=1.107410|271=500000|10=174|
20190913-14:45:45.985691000 : 8=FIX.4.4|9=184|35=W|34=217|49=FIXUAT3-QUOTE.FORTEX.COM|52=20190913-14:45:45.888|56=T1DEMO_FIX_QS|55=EUR/USD|262=1-1568400189.195383|268=2|269=0|270=1.107380|271=100000|269=1|270=1.107410|271=1000000|10=237|
20190913-14:45:46.492926000 : 8=FIX.4.4|9=183|35=W|34=218|49=FIXUAT3-QUOTE.FORTEX.COM|52=20190913-14:45:46.389|56=T1DEMO_FIX_QS|55=EUR/USD|262=1-1568400189.195383|268=2|269=0|270=1.107380|271=100000|269=1|270=1.107410|271=100000|10=186|
20190913-14:45:46.984178000 : 8=FIX.4.4|9=183|35=W|34=219|49=FIXUAT3-QUOTE.FORTEX.COM|52=20190913-14:45:46.878|56=T1DEMO_FIX_QS|55=EUR/USD|262=1-1568400189.195383|268=2|269=0|270=1.107390|271=100000|269=1|270=1.107410|271=500000|10=195|
20190913-14:45:47.444401000 : 8=FIX.4.4|9=183|35=W|34=220|49=FIXUAT3-QUOTE.FORTEX.COM|52=20190913-14:45:47.348|56=T1DEMO_FIX_QS|55=EUR/USD|262=1-1568400189.195383|268=2|269=0|270=1.107350|271=100000|269=1|270=1.107380|271=100000|10=178|
20190913-14:45:47.891598000 : 8=FIX.4.4|9=184|35=W|34=221|49=FIXUAT3-QUOTE.FORTEX.COM|52=20190913-14:45:47.801|56=T1DEMO_FIX_QS|55=EUR/USD|262=1-1568400189.195383|268=2|269=0|270=1.107320|271=1000000|269=1|270=1.107350|271=100000|10=216|
20190913-14:45:48.336635000 : 8=FIX.4.4|9=184|35=W|34=222|49=FIXUAT3-QUOTE.FORTEX.COM|52=20190913-14:45:48.246|56=T1DEMO_FIX_QS|55=EUR/USD|262=1-1568400189.195383|268=2|269=0|270=1.107300|271=100000|269=1|270=1.107320|271=1000000|10=216|
20190913-14:45:48.831815000 : 8=FIX.4.4|9=184|35=W|34=223|49=FIXUAT3-QUOTE.FORTEX.COM|52=20190913-14:45:48.728|56=T1DEMO_FIX_QS|55=EUR/USD|262=1-1568400189.195383|268=2|269=0|270=1.107300|271=100000|269=1|270=1.107330|271=1000000|10=223|
20190913-14:45:49.319864000 : 8=FIX.4.4|9=184|35=W|34=224|49=FIXUAT3-QUOTE.FORTEX.COM|52=20190913-14:45:49.210|56=T1DEMO_FIX_QS|55=EUR/USD|262=1-1568400189.195383|268=2|269=0|270=1.107280|271=100000|269=1|270=1.107300|271=1000000|10=215|
20190913-14:45:49.759630000 : 8=FIX.4.4|9=183|35=W|34=225|49=FIXUAT3-QUOTE.FORTEX.COM|52=20190913-14:45:49.662|56=T1DEMO_FIX_QS|55=EUR/USD|262=1-1568400189.195383|268=2|269=0|270=1.107250|271=250000|269=1|270=1.107270|271=100000|10=187|
20190913-14:45:50.227786000 : 8=FIX.4.4|9=183|35=W|34=226|49=FIXUAT3-QUOTE.FORTEX.COM|52=20190913-14:45:50.127|56=T1DEMO_FIX_QS|55=EUR/USD|262=1-1568400189.195383|268=2|269=0|270=1.107290|271=100000|269=1|270=1.107310|271=500000|10=173|
20190913-14:45:50.681379000 : 8=FIX.4.4|9=183|35=W|34=227|49=FIXUAT3-QUOTE.FORTEX.COM|52=20190913-14:45:50.588|56=T1DEMO_FIX_QS|55=EUR/USD|262=1-1568400189.195383|268=2|269=0|270=1.107290|271=500000|269=1|270=1.107310|271=500000|10=189|
20190913-14:45:51.164872000 : 8=FIX.4.4|9=183|35=W|34=228|49=FIXUAT3-QUOTE.FORTEX.COM|52=20190913-14:45:51.059|56=T1DEMO_FIX_QS|55=EUR/USD|262=1-1568400189.195383|268=2|269=0|270=1.107280|271=100000|269=1|270=1.107310|271=250000|10=181|
20190913-14:45:54.385398000 : 8=FIX.4.4|9=183|35=W|34=229|49=FIXUAT3-QUOTE.FORTEX.COM|52=20190913-14:45:54.274|56=T1DEMO_FIX_QS|55=EUR/USD|262=1-1568400189.195383|268=2|269=0|270=1.107270|271=100000|269=1|270=1.107300|271=250000|10=182|
20190913-14:45:54.935429000 : 8=FIX.4.4|9=183|35=W|34=230|49=FIXUAT3-QUOTE.FORTEX.COM|52=20190913-14:45:54.740|56=T1DEMO_FIX_QS|55=EUR/USD|262=1-1568400189.195383|268=2|269=0|270=1.107230|271=100000|269=1|270=1.107260|271=100000|10=167|
20190913-14:45:55.344780000 : 8=FIX.4.4|9=184|35=W|34=231|49=FIXUAT3-QUOTE.FORTEX.COM|52=20190913-14:45:55.205|56=T1DEMO_FIX_QS|55=EUR/USD|262=1-1568400189.195383|268=2|269=0|270=1.107250|271=3000000|269=1|270=1.107260|271=500000|10=222|
20190913-14:45:55.748189000 : 8=FIX.4.4|9=184|35=W|34=232|49=FIXUAT3-QUOTE.FORTEX.COM|52=20190913-14:45:55.645|56=T1DEMO_FIX_QS|55=EUR/USD|262=1-1568400189.195383|268=2|269=0|270=1.107240|271=5000000|269=1|270=1.107260|271=250000|10=234|
20190913-14:45:57.088700000 : 8=FIX.4.4|9=185|35=W|34=233|49=FIXUAT3-QUOTE.FORTEX.COM|52=20190913-14:45:56.986|56=T1DEMO_FIX_QS|55=EUR/USD|262=1-1568400189.195383|268=2|269=0|270=1.107240|271=5000000|269=1|270=1.107260|271=1000000|10=031|
20190913-14:45:57.533725000 : 8=FIX.4.4|9=183|35=W|34=234|49=FIXUAT3-QUOTE.FORTEX.COM|52=20190913-14:45:57.431|56=T1DEMO_FIX_QS|55=EUR/USD|262=1-1568400189.195383|268=2|269=0|270=1.107250|271=250000|269=1|270=1.107270|271=500000|10=184|
20190913-14:45:57.962308000 : 8=FIX.4.4|9=183|35=W|34=235|49=FIXUAT3-QUOTE.FORTEX.COM|52=20190913-14:45:57.873|56=T1DEMO_FIX_QS|55=EUR/USD|262=1-1568400189.195383|268=2|269=0|270=1.107260|271=100000|269=1|270=1.107270|271=500000|10=190|
20190913-14:45:59.352239000 : 8=FIX.4.4|9=184|35=W|34=236|49=FIXUAT3-QUOTE.FORTEX.COM|52=20190913-14:45:59.257|56=T1DEMO_FIX_QS|55=EUR/USD|262=1-1568400189.195383|268=2|269=0|270=1.107270|271=1000000|269=1|270=1.107280|271=500000|10=240|
20190913-14:46:00.224021000 : 8=FIX.4.4|9=184|35=W|34=237|49=FIXUAT3-QUOTE.FORTEX.COM|52=20190913-14:45:59.721|56=T1DEMO_FIX_QS|55=EUR/USD|262=1-1568400189.195383|268=2|269=0|270=1.107240|271=3000000|269=1|270=1.107260|271=100000|10=230|
20190913-14:46:02.302580000 : 8=FIX.4.4|9=184|35=W|34=238|49=FIXUAT3-QUOTE.FORTEX.COM|52=20190913-14:46:01.133|56=T1DEMO_FIX_QS|55=EUR/USD|262=1-1568400189.195383|268=2|269=0|270=1.107250|271=250000|269=1|270=1.107270|271=1000000|10=222|
20190913-14:46:02.416405000 : 8=FIX.4.4|9=185|35=W|34=239|49=FIXUAT3-QUOTE.FORTEX.COM|52=20190913-14:46:01.614|56=T1DEMO_FIX_QS|55=EUR/USD|262=1-1568400189.195383|268=2|269=0|270=1.107250|271=3000000|269=1|270=1.107270|271=1000000|10=016|
20190913-14:46:02.429348000 : 8=FIX.4.4|9=184|35=W|34=240|49=FIXUAT3-QUOTE.FORTEX.COM|52=20190913-14:46:02.091|56=T1DEMO_FIX_QS|55=EUR/USD|262=1-1568400189.195383|268=2|269=0|270=1.107250|271=1000000|269=1|270=1.107260|271=100000|10=212|
20190913-14:46:02.637203000 : 8=FIX.4.4|9=185|35=W|34=241|49=FIXUAT3-QUOTE.FORTEX.COM|52=20190913-14:46:02.548|56=T1DEMO_FIX_QS|55=EUR/USD|262=1-1568400189.195383|268=2|269=0|270=1.107250|271=3000000|269=1|270=1.107270|271=1000000|10=016|
20190913-14:46:03.117372000 : 8=FIX.4.4|9=183|35=W|34=242|49=FIXUAT3-QUOTE.FORTEX.COM|52=20190913-14:46:03.028|56=T1DEMO_FIX_QS|55=EUR/USD|262=1-1568400189.195383|268=2|269=0|270=1.107250|271=250000|269=1|270=1.107270|271=100000|10=173|
20190913-14:46:03.591558000 : 8=FIX.4.4|9=184|35=W|34=243|49=FIXUAT3-QUOTE.FORTEX.COM|52=20190913-14:46:03.480|56=T1DEMO_FIX_QS|55=EUR/USD|262=1-1568400189.195383|268=2|269=0|270=1.107250|271=3000000|269=1|270=1.107270|271=250000|10=227|
20190913-14:46:04.055632000 : 8=FIX.4.4|9=183|35=W|34=244|49=FIXUAT3-QUOTE.FORTEX.COM|52=20190913-14:46:03.954|56=T1DEMO_FIX_QS|55=EUR/USD|262=1-1568400189.195383|268=2|269=0|270=1.107250|271=500000|269=1|270=1.107260|271=100000|10=180|
20190913-14:46:04.505949000 : 8=FIX.4.4|9=183|35=W|34=245|49=FIXUAT3-QUOTE.FORTEX.COM|52=20190913-14:46:04.415|56=T1DEMO_FIX_QS|55=EUR/USD|262=1-1568400189.195383|268=2|269=0|270=1.107250|271=500000|269=1|270=1.107260|271=500000|10=178|
20190913-14:46:05.936596000 : 8=FIX.4.4|9=183|35=W|34=246|49=FIXUAT3-QUOTE.FORTEX.COM|52=20190913-14:46:05.844|56=T1DEMO_FIX_QS|55=EUR/USD|262=1-1568400189.195383|268=2|269=0|270=1.107250|271=500000|269=1|270=1.107260|271=100000|10=182|
20190913-14:46:06.404934000 : 8=FIX.4.4|9=183|35=W|34=247|49=FIXUAT3-QUOTE.FORTEX.COM|52=20190913-14:46:06.306|56=T1DEMO_FIX_QS|55=EUR/USD|262=1-1568400189.195383|268=2|269=0|270=1.107260|271=100000|269=1|270=1.107290|271=100000|10=177|
20190913-14:46:06.887342000 : 8=FIX.4.4|9=184|35=W|34=248|49=FIXUAT3-QUOTE.FORTEX.COM|52=20190913-14:46:06.776|56=T1DEMO_FIX_QS|55=EUR/USD|262=1-1568400189.195383|268=2|269=0|270=1.107260|271=100000|269=1|270=1.107290|271=1000000|10=238|
20190913-14:46:07.349592000 : 8=FIX.4.4|9=184|35=W|34=249|49=FIXUAT3-QUOTE.FORTEX.COM|52=20190913-14:46:07.256|56=T1DEMO_FIX_QS|55=EUR/USD|262=1-1568400189.195383|268=2|269=0|270=1.107250|271=5000000|269=1|270=1.107280|271=100000|10=235|
20190913-14:46:08.633832000 : 8=FIX.4.4|9=185|35=W|34=250|49=FIXUAT3-QUOTE.FORTEX.COM|52=20190913-14:46:08.543|56=T1DEMO_FIX_QS|55=EUR/USD|262=1-1568400189.195383|268=2|269=0|270=1.107250|271=1000000|269=1|270=1.107280|271=1000000|10=016|
20190913-14:46:09.064299000 : 8=FIX.4.4|9=184|35=W|34=251|49=FIXUAT3-QUOTE.FORTEX.COM|52=20190913-14:46:08.968|56=T1DEMO_FIX_QS|55=EUR/USD|262=1-1568400189.195383|268=2|269=0|270=1.107250|271=1000000|269=1|270=1.107280|271=500000|10=239|
20190913-14:46:09.065182000 : 8=FIX.4.4|9=80|35=0|49=T1DEMO_FIX_QS|56=FIXUAT3-QUOTE.FORTEX.COM|34=8|52=20190913-14:46:09.065|10=172|
20190913-14:46:09.511613000 : 8=FIX.4.4|9=184|35=W|34=252|49=FIXUAT3-QUOTE.FORTEX.COM|52=20190913-14:46:09.419|56=T1DEMO_FIX_QS|55=EUR/USD|262=1-1568400189.195383|268=2|269=0|270=1.107250|271=100000|269=1|270=1.107280|271=1000000|10=228|
20190913-14:46:10.355816000 : 8=FIX.4.4|9=183|35=W|34=253|49=FIXUAT3-QUOTE.FORTEX.COM|52=20190913-14:46:09.861|56=T1DEMO_FIX_QS|55=EUR/USD|262=1-1568400189.195383|268=2|269=0|270=1.107250|271=100000|269=1|270=1.107280|271=100000|10=181|
20190913-14:46:10.391930000 : 8=FIX.4.4|9=184|35=W|34=254|49=FIXUAT3-QUOTE.FORTEX.COM|52=20190913-14:46:10.298|56=T1DEMO_FIX_QS|55=EUR/USD|262=1-1568400189.195383|268=2|269=0|270=1.107250|271=100000|269=1|270=1.107280|271=1000000|10=227|
20190913-14:46:10.935767000 : 8=FIX.4.4|9=183|35=W|34=255|49=FIXUAT3-QUOTE.FORTEX.COM|52=20190913-14:46:10.839|56=T1DEMO_FIX_QS|55=EUR/USD|262=1-1568400189.195383|268=2|269=0|270=1.107250|271=100000|269=1|270=1.107280|271=100000|10=180|
20190913-14:46:11.412428000 : 8=FIX.4.4|9=184|35=W|34=256|49=FIXUAT3-QUOTE.FORTEX.COM|52=20190913-14:46:11.323|56=T1DEMO_FIX_QS|55=EUR/USD|262=1-1568400189.195383|268=2|269=0|270=1.107250|271=5000000|269=1|270=1.107270|271=100000|10=222|
20190913-14:46:11.875689000 : 8=FIX.4.4|9=184|35=W|34=257|49=FIXUAT3-QUOTE.FORTEX.COM|52=20190913-14:46:11.775|56=T1DEMO_FIX_QS|55=EUR/USD|262=1-1568400189.195383|268=2|269=0|270=1.107250|271=100000|269=1|270=1.107280|271=1000000|10=231|
20190913-14:46:12.331857000 : 8=FIX.4.4|9=184|35=W|34=258|49=FIXUAT3-QUOTE.FORTEX.COM|52=20190913-14:46:12.237|56=T1DEMO_FIX_QS|55=EUR/USD|262=1-1568400189.195383|268=2|269=0|270=1.107250|271=5000000|269=1|270=1.107270|271=100000|10=229|
20190913-14:46:13.253088000 : 8=FIX.4.4|9=184|35=W|34=259|49=FIXUAT3-QUOTE.FORTEX.COM|52=20190913-14:46:13.164|56=T1DEMO_FIX_QS|55=EUR/USD|262=1-1568400189.195383|268=2|269=0|270=1.107250|271=100000|269=1|270=1.107280|271=1000000|10=227|
20190913-14:46:13.719472000 : 8=FIX.4.4|9=184|35=W|34=260|49=FIXUAT3-QUOTE.FORTEX.COM|52=20190913-14:46:13.611|56=T1DEMO_FIX_QS|55=EUR/USD|262=1-1568400189.195383|268=2|269=0|270=1.107250|271=5000000|269=1|270=1.107280|271=100000|10=220|
20190913-14:46:14.168236000 : 8=FIX.4.4|9=184|35=W|34=261|49=FIXUAT3-QUOTE.FORTEX.COM|52=20190913-14:46:14.062|56=T1DEMO_FIX_QS|55=EUR/USD|262=1-1568400189.195383|268=2|269=0|270=1.107240|271=100000|269=1|270=1.107270|271=1000000|10=216|
20190913-14:46:14.619258000 : 8=FIX.4.4|9=184|35=W|34=262|49=FIXUAT3-QUOTE.FORTEX.COM|52=20190913-14:46:14.506|56=T1DEMO_FIX_QS|55=EUR/USD|262=1-1568400189.195383|268=2|269=0|270=1.107200|271=1000000|269=1|270=1.107230|271=100000|10=212|
20190913-14:46:15.094441000 : 8=FIX.4.4|9=184|35=W|34=263|49=FIXUAT3-QUOTE.FORTEX.COM|52=20190913-14:46:14.993|56=T1DEMO_FIX_QS|55=EUR/USD|262=1-1568400189.195383|268=2|269=0|270=1.107210|271=100000|269=1|270=1.107240|271=1000000|10=225|
20190913-14:46:15.523830000 : 8=FIX.4.4|9=183|35=W|34=264|49=FIXUAT3-QUOTE.FORTEX.COM|52=20190913-14:46:15.418|56=T1DEMO_FIX_QS|55=EUR/USD|262=1-1568400189.195383|268=2|269=0|270=1.107220|271=500000|269=1|270=1.107240|271=100000|10=175|
20190913-14:46:16.323046000 : 8=FIX.4.4|9=184|35=W|34=265|49=FIXUAT3-QUOTE.FORTEX.COM|52=20190913-14:46:15.837|56=T1DEMO_FIX_QS|55=EUR/USD|262=1-1568400189.195383|268=2|269=0|270=1.107250|271=1000000|269=1|270=1.107270|271=500000|10=236|
20190913-14:46:16.358473000 : 8=FIX.4.4|9=184|35=W|34=266|49=FIXUAT3-QUOTE.FORTEX.COM|52=20190913-14:46:16.268|56=T1DEMO_FIX_QS|55=EUR/USD|262=1-1568400189.195383|268=2|269=0|270=1.107250|271=3000000|269=1|270=1.107280|271=500000|10=239|
20190913-14:46:17.757372000 : 8=FIX.4.4|9=185|35=W|34=267|49=FIXUAT3-QUOTE.FORTEX.COM|52=20190913-14:46:17.653|56=T1DEMO_FIX_QS|55=EUR/USD|262=1-1568400189.195383|268=2|269=0|270=1.107260|271=1000000|269=1|270=1.107280|271=1000000|10=027|
20190913-14:46:18.191757000 : 8=FIX.4.4|9=184|35=W|34=268|49=FIXUAT3-QUOTE.FORTEX.COM|52=20190913-14:46:18.102|56=T1DEMO_FIX_QS|55=EUR/USD|262=1-1568400189.195383|268=2|269=0|270=1.107260|271=1000000|269=1|270=1.107280|271=500000|10=229|
20190913-14:46:18.631742000 : 8=FIX.4.4|9=184|35=W|34=269|49=FIXUAT3-QUOTE.FORTEX.COM|52=20190913-14:46:18.541|56=T1DEMO_FIX_QS|55=EUR/USD|262=1-1568400189.195383|268=2|269=0|270=1.107250|271=3000000|269=1|270=1.107270|271=100000|10=233|
20190913-14:46:21.035884000 : 8=FIX.4.4|9=184|35=W|34=270|49=FIXUAT3-QUOTE.FORTEX.COM|52=20190913-14:46:20.911|56=T1DEMO_FIX_QS|55=EUR/USD|262=1-1568400189.195383|268=2|269=0|270=1.107290|271=1000000|269=1|270=1.107320|271=100000|10=217|
20190913-14:46:21.541947000 : 8=FIX.4.4|9=185|35=W|34=271|49=FIXUAT3-QUOTE.FORTEX.COM|52=20190913-14:46:21.383|56=T1DEMO_FIX_QS|55=EUR/USD|262=1-1568400189.195383|268=2|269=0|270=1.107300|271=1000000|269=1|270=1.107330|271=1000000|10=008|
20190913-14:46:21.931970000 : 8=FIX.4.4|9=185|35=W|34=272|49=FIXUAT3-QUOTE.FORTEX.COM|52=20190913-14:46:21.839|56=T1DEMO_FIX_QS|55=EUR/USD|262=1-1568400189.195383|268=2|269=0|270=1.107310|271=1000000|269=1|270=1.107340|271=1000000|10=017|
20190913-14:46:22.367968000 : 8=FIX.4.4|9=183|35=W|34=273|49=FIXUAT3-QUOTE.FORTEX.COM|52=20190913-14:46:22.279|56=T1DEMO_FIX_QS|55=EUR/USD|262=1-1568400189.195383|268=2|269=0|270=1.107340|271=100000|269=1|270=1.107360|271=500000|10=184|
20190913-14:46:23.271802000 : 8=FIX.4.4|9=184|35=W|34=274|49=FIXUAT3-QUOTE.FORTEX.COM|52=20190913-14:46:23.182|56=T1DEMO_FIX_QS|55=EUR/USD|262=1-1568400189.195383|268=2|269=0|270=1.107340|271=100000|269=1|270=1.107370|271=1000000|10=225|
20190913-14:46:24.147539000 : 8=FIX.4.4|9=184|35=W|34=275|49=FIXUAT3-QUOTE.FORTEX.COM|52=20190913-14:46:24.040|56=T1DEMO_FIX_QS|55=EUR/USD|262=1-1568400189.195383|268=2|269=0|270=1.107350|271=100000|269=1|270=1.107370|271=1000000|10=221|
20190913-14:46:24.573147000 : 8=FIX.4.4|9=184|35=W|34=276|49=FIXUAT3-QUOTE.FORTEX.COM|52=20190913-14:46:24.484|56=T1DEMO_FIX_QS|55=EUR/USD|262=1-1568400189.195383|268=2|269=0|270=1.107340|271=1000000|269=1|270=1.107370|271=100000|10=233|
20190913-14:46:25.484132000 : 8=FIX.4.4|9=184|35=W|34=277|49=FIXUAT3-QUOTE.FORTEX.COM|52=20190913-14:46:25.382|56=T1DEMO_FIX_QS|55=EUR/USD|262=1-1568400189.195383|268=2|269=0|270=1.107350|271=1000000|269=1|270=1.107370|271=100000|10=233|
20190913-14:46:26.303506000 : 8=FIX.4.4|9=184|35=W|34=278|49=FIXUAT3-QUOTE.FORTEX.COM|52=20190913-14:46:26.202|56=T1DEMO_FIX_QS|55=EUR/USD|262=1-1568400189.195383|268=2|269=0|270=1.107340|271=100000|269=1|270=1.107370|271=1000000|10=225|
20190913-14:46:26.739638000 : 8=FIX.4.4|9=183|35=W|34=279|49=FIXUAT3-QUOTE.FORTEX.COM|52=20190913-14:46:26.640|56=T1DEMO_FIX_QS|55=EUR/USD|262=1-1568400189.195383|268=2|269=0|270=1.107340|271=100000|269=1|270=1.107370|271=100000|10=183|
20190913-14:46:27.203886000 : 8=FIX.4.4|9=183|35=W|34=280|49=FIXUAT3-QUOTE.FORTEX.COM|52=20190913-14:46:27.092|56=T1DEMO_FIX_QS|55=EUR/USD|262=1-1568400189.195383|268=2|269=0|270=1.107330|271=100000|269=1|270=1.107360|271=100000|10=175|
20190913-14:46:27.594267000 : 8=FIX.4.4|9=183|35=W|34=281|49=FIXUAT3-QUOTE.FORTEX.COM|52=20190913-14:46:27.505|56=T1DEMO_FIX_QS|55=EUR/USD|262=1-1568400189.195383|268=2|269=0|270=1.107320|271=100000|269=1|270=1.107350|271=100000|10=173|
20190913-14:46:28.888285000 : 8=FIX.4.4|9=183|35=W|34=282|49=FIXUAT3-QUOTE.FORTEX.COM|52=20190913-14:46:28.794|56=T1DEMO_FIX_QS|55=EUR/USD|262=1-1568400189.195383|268=2|269=0|270=1.107300|271=250000|269=1|270=1.107320|271=100000|10=186|
20190913-14:46:29.371368000 : 8=FIX.4.4|9=184|35=W|34=283|49=FIXUAT3-QUOTE.FORTEX.COM|52=20190913-14:46:29.268|56=T1DEMO_FIX_QS|55=EUR/USD|262=1-1568400189.195383|268=2|269=0|270=1.107280|271=1000000|269=1|270=1.107310|271=100000|10=233|
20190913-14:46:29.802013000 : 8=FIX.4.4|9=184|35=W|34=284|49=FIXUAT3-QUOTE.FORTEX.COM|52=20190913-14:46:29.712|56=T1DEMO_FIX_QS|55=EUR/USD|262=1-1568400189.195383|268=2|269=0|270=1.107280|271=100000|269=1|270=1.107310|271=1000000|10=228|
20190913-14:46:30.715764000 : 8=FIX.4.4|9=184|35=W|34=285|49=FIXUAT3-QUOTE.FORTEX.COM|52=20190913-14:46:30.626|56=T1DEMO_FIX_QS|55=EUR/USD|262=1-1568400189.195383|268=2|269=0|270=1.107280|271=1000000|269=1|270=1.107310|271=100000|10=225|
20190913-14:46:31.211567000 : 8=FIX.4.4|9=184|35=W|34=286|49=FIXUAT3-QUOTE.FORTEX.COM|52=20190913-14:46:31.113|56=T1DEMO_FIX_QS|55=EUR/USD|262=1-1568400189.195383|268=2|269=0|270=1.107280|271=100000|269=1|270=1.107300|271=3000000|10=219|
20190913-14:46:31.628386000 : 8=FIX.4.4|9=185|35=W|34=287|49=FIXUAT3-QUOTE.FORTEX.COM|52=20190913-14:46:31.539|56=T1DEMO_FIX_QS|55=EUR/USD|262=1-1568400189.195383|268=2|269=0|270=1.107280|271=1000000|269=1|270=1.107300|271=3000000|10=025|
20190913-14:46:32.063627000 : 8=FIX.4.4|9=184|35=W|34=288|49=FIXUAT3-QUOTE.FORTEX.COM|52=20190913-14:46:31.959|56=T1DEMO_FIX_QS|55=EUR/USD|262=1-1568400189.195383|268=2|269=0|270=1.107290|271=100000|269=1|270=1.107300|271=3000000|10=240|
20190913-14:46:32.889238000 : 8=FIX.4.4|9=184|35=W|34=289|49=FIXUAT3-QUOTE.FORTEX.COM|52=20190913-14:46:32.409|56=T1DEMO_FIX_QS|55=EUR/USD|262=1-1568400189.195383|268=2|269=0|270=1.107280|271=250000|269=1|270=1.107300|271=3000000|10=237|
20190913-14:46:32.975061000 : 8=FIX.4.4|9=183|35=W|34=290|49=FIXUAT3-QUOTE.FORTEX.COM|52=20190913-14:46:32.875|56=T1DEMO_FIX_QS|55=EUR/USD|262=1-1568400189.195383|268=2|269=0|270=1.107290|271=100000|269=1|270=1.107300|271=500000|10=184|
20190913-14:46:33.459460000 : 8=FIX.4.4|9=184|35=W|34=291|49=FIXUAT3-QUOTE.FORTEX.COM|52=20190913-14:46:33.351|56=T1DEMO_FIX_QS|55=EUR/USD|262=1-1568400189.195383|268=2|269=0|270=1.107290|271=100000|269=1|270=1.107320|271=3000000|10=224|
20190913-14:46:33.891385000 : 8=FIX.4.4|9=185|35=W|34=292|49=FIXUAT3-QUOTE.FORTEX.COM|52=20190913-14:46:33.784|56=T1DEMO_FIX_QS|55=EUR/USD|262=1-1568400189.195383|268=2|269=0|270=1.107290|271=1000000|269=1|270=1.107320|271=1000000|10=026|
20190913-14:46:34.315821000 : 8=FIX.4.4|9=184|35=W|34=293|49=FIXUAT3-QUOTE.FORTEX.COM|52=20190913-14:46:34.221|56=T1DEMO_FIX_QS|55=EUR/USD|262=1-1568400189.195383|268=2|269=0|270=1.107300|271=250000|269=1|270=1.107320|271=1000000|10=219|
20190913-14:46:34.756372000 : 8=FIX.4.4|9=184|35=W|34=294|49=FIXUAT3-QUOTE.FORTEX.COM|52=20190913-14:46:34.667|56=T1DEMO_FIX_QS|55=EUR/USD|262=1-1568400189.195383|268=2|269=0|270=1.107300|271=100000|269=1|270=1.107320|271=1000000|10=228|
20190913-14:46:36.544841000 : 8=FIX.4.4|9=183|35=W|34=295|49=FIXUAT3-QUOTE.FORTEX.COM|52=20190913-14:46:36.454|56=T1DEMO_FIX_QS|55=EUR/USD|262=1-1568400189.195383|268=2|269=0|270=1.107300|271=250000|269=1|270=1.107320|271=100000|10=182|
20190913-14:46:37.411928000 : 8=FIX.4.4|9=184|35=W|34=296|49=FIXUAT3-QUOTE.FORTEX.COM|52=20190913-14:46:36.929|56=T1DEMO_FIX_QS|55=EUR/USD|262=1-1568400189.195383|268=2|269=0|270=1.107300|271=100000|269=1|270=1.107320|271=1000000|10=233|
20190913-14:46:37.486335000 : 8=FIX.4.4|9=184|35=W|34=297|49=FIXUAT3-QUOTE.FORTEX.COM|52=20190913-14:46:37.397|56=T1DEMO_FIX_QS|55=EUR/USD|262=1-1568400189.195383|268=2|269=0|270=1.107310|271=1000000|269=1|270=1.107320|271=500000|10=239|
20190913-14:46:38.916166000 : 8=FIX.4.4|9=184|35=W|34=298|49=FIXUAT3-QUOTE.FORTEX.COM|52=20190913-14:46:38.826|56=T1DEMO_FIX_QS|55=EUR/USD|262=1-1568400189.195383|268=2|269=0|270=1.107330|271=100000|269=1|270=1.107360|271=1000000|10=240|
20190913-14:46:39.465539000 : 8=FIX.4.4|9=80|35=0|49=T1DEMO_FIX_QS|56=FIXUAT3-QUOTE.FORTEX.COM|34=9|52=20190913-14:46:39.465|10=180|
20190913-14:46:39.815590000 : 8=FIX.4.4|9=183|35=W|34=299|49=FIXUAT3-QUOTE.FORTEX.COM|52=20190913-14:46:39.716|56=T1DEMO_FIX_QS|55=EUR/USD|262=1-1568400189.195383|268=2|269=0|270=1.107330|271=100000|269=1|270=1.107360|271=100000|10=191|
20190913-14:46:40.259539000 : 8=FIX.4.4|9=184|35=W|34=300|49=FIXUAT3-QUOTE.FORTEX.COM|52=20190913-14:46:40.157|56=T1DEMO_FIX_QS|55=EUR/USD|262=1-1568400189.195383|268=2|269=0|270=1.107330|271=1000000|269=1|270=1.107360|271=100000|10=214|
20190913-14:46:41.164576000 : 8=FIX.4.4|9=183|35=W|34=301|49=FIXUAT3-QUOTE.FORTEX.COM|52=20190913-14:46:41.075|56=T1DEMO_FIX_QS|55=EUR/USD|262=1-1568400189.195383|268=2|269=0|270=1.107330|271=100000|269=1|270=1.107360|271=100000|10=166|
20190913-14:46:42.511833000 : 8=FIX.4.4|9=184|35=W|34=302|49=FIXUAT3-QUOTE.FORTEX.COM|52=20190913-14:46:42.403|56=T1DEMO_FIX_QS|55=EUR/USD|262=1-1568400189.195383|268=2|269=0|270=1.107390|271=250000|269=1|270=1.107410|271=1000000|10=220|
20190913-14:46:42.947074000 : 8=FIX.4.4|9=183|35=W|34=303|49=FIXUAT3-QUOTE.FORTEX.COM|52=20190913-14:46:42.838|56=T1DEMO_FIX_QS|55=EUR/USD|262=1-1568400189.195383|268=2|269=0|270=1.107390|271=100000|269=1|270=1.107410|271=500000|10=182|
20190913-14:46:43.368109000 : 8=FIX.4.4|9=184|35=W|34=304|49=FIXUAT3-QUOTE.FORTEX.COM|52=20190913-14:46:43.266|56=T1DEMO_FIX_QS|55=EUR/USD|262=1-1568400189.195383|268=2|269=0|270=1.107370|271=100000|269=1|270=1.107390|271=1000000|10=229|
20190913-14:46:43.823989000 : 8=FIX.4.4|9=184|35=W|34=305|49=FIXUAT3-QUOTE.FORTEX.COM|52=20190913-14:46:43.728|56=T1DEMO_FIX_QS|55=EUR/USD|262=1-1568400189.195383|268=2|269=0|270=1.107360|271=1000000|269=1|270=1.107390|271=100000|10=232|
20190913-14:46:44.231266000 : 8=FIX.4.4|9=184|35=W|34=306|49=FIXUAT3-QUOTE.FORTEX.COM|52=20190913-14:46:44.132|56=T1DEMO_FIX_QS|55=EUR/USD|262=1-1568400189.195383|268=2|269=0|270=1.107360|271=100000|269=1|270=1.107380|271=1000000|10=222|
20190913-14:46:44.679407000 : 8=FIX.4.4|9=183|35=W|34=307|49=FIXUAT3-QUOTE.FORTEX.COM|52=20190913-14:46:44.589|56=T1DEMO_FIX_QS|55=EUR/USD|262=1-1568400189.195383|268=2|269=0|270=1.107350|271=100000|269=1|270=1.107380|271=100000|10=189|
20190913-14:46:46.088443000 : 8=FIX.4.4|9=183|35=W|34=308|49=FIXUAT3-QUOTE.FORTEX.COM|52=20190913-14:46:45.990|56=T1DEMO_FIX_QS|55=EUR/USD|262=1-1568400189.195383|268=2|269=0|270=1.107350|271=100000|269=1|270=1.107370|271=500000|10=190|
20190913-14:46:47.504588000 : 8=FIX.4.4|9=185|35=W|34=309|49=FIXUAT3-QUOTE.FORTEX.COM|52=20190913-14:46:47.391|56=T1DEMO_FIX_QS|55=EUR/USD|262=1-1568400189.195383|268=2|269=0|270=1.107390|271=1000000|269=1|270=1.107420|271=1000000|10=026|
20190913-14:46:47.935388000 : 8=FIX.4.4|9=183|35=W|34=310|49=FIXUAT3-QUOTE.FORTEX.COM|52=20190913-14:46:47.841|56=T1DEMO_FIX_QS|55=EUR/USD|262=1-1568400189.195383|268=2|269=0|270=1.107400|271=250000|269=1|270=1.107430|271=100000|10=175|
20190913-14:46:48.380164000 : 8=FIX.4.4|9=184|35=W|34=311|49=FIXUAT3-QUOTE.FORTEX.COM|52=20190913-14:46:48.290|56=T1DEMO_FIX_QS|55=EUR/USD|262=1-1568400189.195383|268=2|269=0|270=1.107420|271=1000000|269=1|270=1.107430|271=100000|10=220|
20190913-14:46:48.851961000 : 8=FIX.4.4|9=185|35=W|34=312|49=FIXUAT3-QUOTE.FORTEX.COM|52=20190913-14:46:48.763|56=T1DEMO_FIX_QS|55=EUR/USD|262=1-1568400189.195383|268=2|269=0|270=1.107400|271=1000000|269=1|270=1.107430|271=1000000|10=017|
20190913-14:46:49.347780000 : 8=FIX.4.4|9=183|35=W|34=313|49=FIXUAT3-QUOTE.FORTEX.COM|52=20190913-14:46:49.248|56=T1DEMO_FIX_QS|55=EUR/USD|262=1-1568400189.195383|268=2|269=0|270=1.107390|271=100000|269=1|270=1.107420|271=100000|10=182|
20190913-14:46:49.799614000 : 8=FIX.4.4|9=184|35=W|34=314|49=FIXUAT3-QUOTE.FORTEX.COM|52=20190913-14:46:49.697|56=T1DEMO_FIX_QS|55=EUR/USD|262=1-1568400189.195383|268=2|269=0|270=1.107390|271=1000000|269=1|270=1.107420|271=100000|10=240|
20190913-14:46:50.267692000 : 8=FIX.4.4|9=183|35=W|34=315|49=FIXUAT3-QUOTE.FORTEX.COM|52=20190913-14:46:50.170|56=T1DEMO_FIX_QS|55=EUR/USD|262=1-1568400189.195383|268=2|269=0|270=1.107390|271=100000|269=1|270=1.107430|271=100000|10=171|
20190913-14:46:50.759920000 : 8=FIX.4.4|9=184|35=W|34=316|49=FIXUAT3-QUOTE.FORTEX.COM|52=20190913-14:46:50.658|56=T1DEMO_FIX_QS|55=EUR/USD|262=1-1568400189.195383|268=2|269=0|270=1.107360|271=1000000|269=1|270=1.107390|271=500000|10=238|
20190913-14:46:51.259895000 : 8=FIX.4.4|9=183|35=W|34=317|49=FIXUAT3-QUOTE.FORTEX.COM|52=20190913-14:46:51.147|56=T1DEMO_FIX_QS|55=EUR/USD|262=1-1568400189.195383|268=2|269=0|270=1.107370|271=250000|269=1|270=1.107390|271=500000|10=191|
20190913-14:46:51.695600000 : 8=FIX.4.4|9=183|35=W|34=318|49=FIXUAT3-QUOTE.FORTEX.COM|52=20190913-14:46:51.605|56=T1DEMO_FIX_QS|55=EUR/USD|262=1-1568400189.195383|268=2|269=0|270=1.107340|271=250000|269=1|270=1.107380|271=100000|10=183|
20190913-14:46:52.130115000 : 8=FIX.4.4|9=184|35=W|34=319|49=FIXUAT3-QUOTE.FORTEX.COM|52=20190913-14:46:52.040|56=T1DEMO_FIX_QS|55=EUR/USD|262=1-1568400189.195383|268=2|269=0|270=1.107350|271=1000000|269=1|270=1.107380|271=100000|10=222|
20190913-14:46:53.508559000 : 8=FIX.4.4|9=184|35=W|34=320|49=FIXUAT3-QUOTE.FORTEX.COM|52=20190913-14:46:53.408|56=T1DEMO_FIX_QS|55=EUR/USD|262=1-1568400189.195383|268=2|269=0|270=1.107360|271=1000000|269=1|270=1.107380|271=500000|10=228|
20190913-14:46:53.967442000 : 8=FIX.4.4|9=185|35=W|34=321|49=FIXUAT3-QUOTE.FORTEX.COM|52=20190913-14:46:53.870|56=T1DEMO_FIX_QS|55=EUR/USD|262=1-1568400189.195383|268=2|269=0|270=1.107440|271=1000000|269=1|270=1.107470|271=1000000|10=020|
20190913-14:46:54.918206000 : 8=FIX.4.4|9=184|35=W|34=322|49=FIXUAT3-QUOTE.FORTEX.COM|52=20190913-14:46:54.828|56=T1DEMO_FIX_QS|55=EUR/USD|262=1-1568400189.195383|268=2|269=0|270=1.107440|271=100000|269=1|270=1.107470|271=1000000|10=232|
20190913-14:46:56.684137000 : 8=FIX.4.4|9=185|35=W|34=323|49=FIXUAT3-QUOTE.FORTEX.COM|52=20190913-14:46:56.188|56=T1DEMO_FIX_QS|55=EUR/USD|262=1-1568400189.195383|268=2|269=0|270=1.107440|271=1000000|269=1|270=1.107470|271=1000000|10=027|
20190913-14:46:56.774037000 : 8=FIX.4.4|9=183|35=W|34=324|49=FIXUAT3-QUOTE.FORTEX.COM|52=20190913-14:46:56.627|56=T1DEMO_FIX_QS|55=EUR/USD|262=1-1568400189.195383|268=2|269=0|270=1.107410|271=500000|269=1|270=1.107440|271=100000|10=182|
20190913-14:46:57.574271000 : 8=FIX.4.4|9=185|35=W|34=325|49=FIXUAT3-QUOTE.FORTEX.COM|52=20190913-14:46:57.092|56=T1DEMO_FIX_QS|55=EUR/USD|262=1-1568400189.195383|268=2|269=0|270=1.107400|271=1000000|269=1|270=1.107440|271=1000000|10=017|
20190913-14:46:57.647576000 : 8=FIX.4.4|9=185|35=W|34=326|49=FIXUAT3-QUOTE.FORTEX.COM|52=20190913-14:46:57.546|56=T1DEMO_FIX_QS|55=EUR/USD|262=1-1568400189.195383|268=2|269=0|270=1.107410|271=1000000|269=1|270=1.107440|271=1000000|10=023|
20190913-14:46:58.049620000 : 8=FIX.4.4|9=184|35=W|34=327|49=FIXUAT3-QUOTE.FORTEX.COM|52=20190913-14:46:57.960|56=T1DEMO_FIX_QS|55=EUR/USD|262=1-1568400189.195383|268=2|269=0|270=1.107410|271=100000|269=1|270=1.107440|271=1000000|10=231|
20190913-14:46:58.450974000 : 8=FIX.4.4|9=184|35=W|34=328|49=FIXUAT3-QUOTE.FORTEX.COM|52=20190913-14:46:58.362|56=T1DEMO_FIX_QS|55=EUR/USD|262=1-1568400189.195383|268=2|269=0|270=1.107420|271=100000|269=1|270=1.107440|271=1000000|10=230|
20190913-14:46:58.899642000 : 8=FIX.4.4|9=183|35=W|34=329|49=FIXUAT3-QUOTE.FORTEX.COM|52=20190913-14:46:58.803|56=T1DEMO_FIX_QS|55=EUR/USD|262=1-1568400189.195383|268=2|269=0|270=1.107400|271=500000|269=1|270=1.107430|271=500000|10=187|
20190913-14:46:59.375822000 : 8=FIX.4.4|9=183|35=W|34=330|49=FIXUAT3-QUOTE.FORTEX.COM|52=20190913-14:46:59.278|56=T1DEMO_FIX_QS|55=EUR/USD|262=1-1568400189.195383|268=2|269=0|270=1.107380|271=250000|269=1|270=1.107410|271=100000|10=189|
20190913-14:47:00.187512000 : 8=FIX.4.4|9=184|35=W|34=331|49=FIXUAT3-QUOTE.FORTEX.COM|52=20190913-14:47:00.093|56=T1DEMO_FIX_QS|55=EUR/USD|262=1-1568400189.195383|268=2|269=0|270=1.107390|271=250000|269=1|270=1.107410|271=1000000|10=222|
20190913-14:47:01.501185000 : 8=FIX.4.4|9=184|35=W|34=332|49=FIXUAT3-QUOTE.FORTEX.COM|52=20190913-14:47:01.407|56=T1DEMO_FIX_QS|55=EUR/USD|262=1-1568400189.195383|268=2|269=0|270=1.107380|271=250000|269=1|270=1.107410|271=1000000|10=222|
20190913-14:47:01.899503000 : 8=FIX.4.4|9=184|35=W|34=333|49=FIXUAT3-QUOTE.FORTEX.COM|52=20190913-14:47:01.796|56=T1DEMO_FIX_QS|55=EUR/USD|262=1-1568400189.195383|268=2|269=0|270=1.107380|271=1000000|269=1|270=1.107410|271=100000|10=228|
20190913-14:47:02.263512000 : 8=FIX.4.4|9=184|35=W|34=334|49=FIXUAT3-QUOTE.FORTEX.COM|52=20190913-14:47:02.174|56=T1DEMO_FIX_QS|55=EUR/USD|262=1-1568400189.195383|268=2|269=0|270=1.107390|271=250000|269=1|270=1.107410|271=1000000|10=227|
20190913-14:47:03.437261000 : 8=FIX.4.4|9=184|35=W|34=335|49=FIXUAT3-QUOTE.FORTEX.COM|52=20190913-14:47:03.330|56=T1DEMO_FIX_QS|55=EUR/USD|262=1-1568400189.195383|268=2|269=0|270=1.107380|271=1000000|269=1|270=1.107410|271=100000|10=216|
20190913-14:47:03.801385000 : 8=FIX.4.4|9=184|35=W|34=336|49=FIXUAT3-QUOTE.FORTEX.COM|52=20190913-14:47:03.711|56=T1DEMO_FIX_QS|55=EUR/USD|262=1-1568400189.195383|268=2|269=0|270=1.107380|271=100000|269=1|270=1.107410|271=1000000|10=220|
20190913-14:47:05.472735000 : 8=FIX.4.4|9=185|35=W|34=337|49=FIXUAT3-QUOTE.FORTEX.COM|52=20190913-14:47:05.378|56=T1DEMO_FIX_QS|55=EUR/USD|262=1-1568400189.195383|268=2|269=0|270=1.107380|271=1000000|269=1|270=1.107410|271=1000000|10=025|
20190913-14:47:05.921633000 : 8=FIX.4.4|9=184|35=W|34=338|49=FIXUAT3-QUOTE.FORTEX.COM|52=20190913-14:47:05.831|56=T1DEMO_FIX_QS|55=EUR/USD|262=1-1568400189.195383|268=2|269=0|270=1.107390|271=250000|269=1|270=1.107410|271=1000000|10=234|
20190913-14:47:06.373128000 : 8=FIX.4.4|9=184|35=W|34=339|49=FIXUAT3-QUOTE.FORTEX.COM|52=20190913-14:47:06.284|56=T1DEMO_FIX_QS|55=EUR/USD|262=1-1568400189.195383|268=2|269=0|270=1.107380|271=1000000|269=1|270=1.107410|271=100000|10=231|
20190913-14:47:06.875071000 : 8=FIX.4.4|9=184|35=W|34=340|49=FIXUAT3-QUOTE.FORTEX.COM|52=20190913-14:47:06.778|56=T1DEMO_FIX_QS|55=EUR/USD|262=1-1568400189.195383|268=2|269=0|270=1.107380|271=1000000|269=1|270=1.107410|271=500000|10=235|
20190913-14:47:07.368634000 : 8=FIX.4.4|9=183|35=W|34=341|49=FIXUAT3-QUOTE.FORTEX.COM|52=20190913-14:47:07.258|56=T1DEMO_FIX_QS|55=EUR/USD|262=1-1568400189.195383|268=2|269=0|270=1.107410|271=250000|269=1|270=1.107420|271=500000|10=182|
20190913-14:47:07.795567000 : 8=FIX.4.4|9=185|35=W|34=342|49=FIXUAT3-QUOTE.FORTEX.COM|52=20190913-14:47:07.695|56=T1DEMO_FIX_QS|55=EUR/USD|262=1-1568400189.195383|268=2|269=0|270=1.107440|271=1000000|269=1|270=1.107460|271=1000000|10=027|
20190913-14:47:08.220978000 : 8=FIX.4.4|9=184|35=W|34=343|49=FIXUAT3-QUOTE.FORTEX.COM|52=20190913-14:47:08.132|56=T1DEMO_FIX_QS|55=EUR/USD|262=1-1568400189.195383|268=2|269=0|270=1.107440|271=100000|269=1|270=1.107460|271=1000000|10=222|
20190913-14:47:09.082105000 : 8=FIX.4.4|9=81|35=0|49=T1DEMO_FIX_QS|56=FIXUAT3-QUOTE.FORTEX.COM|34=10|52=20190913-14:47:09.081|10=213|
20190913-14:47:09.676535000 : 8=FIX.4.4|9=184|35=W|34=344|49=FIXUAT3-QUOTE.FORTEX.COM|52=20190913-14:47:09.566|56=T1DEMO_FIX_QS|55=EUR/USD|262=1-1568400189.195383|268=2|269=0|270=1.107470|271=1000000|269=1|270=1.107500|271=100000|10=233|
20190913-14:47:10.131539000 : 8=FIX.4.4|9=184|35=W|34=345|49=FIXUAT3-QUOTE.FORTEX.COM|52=20190913-14:47:10.019|56=T1DEMO_FIX_QS|55=EUR/USD|262=1-1568400189.195383|268=2|269=0|270=1.107450|271=100000|269=1|270=1.107480|271=1000000|10=224|
20190913-14:47:11.051255000 : 8=FIX.4.4|9=183|35=W|34=346|49=FIXUAT3-QUOTE.FORTEX.COM|52=20190913-14:47:10.962|56=T1DEMO_FIX_QS|55=EUR/USD|262=1-1568400189.195383|268=2|269=0|270=1.107450|271=500000|269=1|270=1.107470|271=100000|10=186|
20190913-14:47:11.951478000 : 8=FIX.4.4|9=184|35=W|34=347|49=FIXUAT3-QUOTE.FORTEX.COM|52=20190913-14:47:11.856|56=T1DEMO_FIX_QS|55=EUR/USD|262=1-1568400189.195383|268=2|269=0|270=1.107450|271=500000|269=1|270=1.107470|271=1000000|10=239|
20190913-14:47:12.417532000 : 8=FIX.4.4|9=184|35=W|34=348|49=FIXUAT3-QUOTE.FORTEX.COM|52=20190913-14:47:12.322|56=T1DEMO_FIX_QS|55=EUR/USD|262=1-1568400189.195383|268=2|269=0|270=1.107440|271=1000000|269=1|270=1.107460|271=250000|10=229|
20190913-14:47:12.923619000 : 8=FIX.4.4|9=184|35=W|34=349|49=FIXUAT3-QUOTE.FORTEX.COM|52=20190913-14:47:12.834|56=T1DEMO_FIX_QS|55=EUR/USD|262=1-1568400189.195383|268=2|269=0|270=1.107430|271=100000|269=1|270=1.107450|271=1000000|10=230|
20190913-14:47:14.345240000 : 8=FIX.4.4|9=184|35=W|34=350|49=FIXUAT3-QUOTE.FORTEX.COM|52=20190913-14:47:14.242|56=T1DEMO_FIX_QS|55=EUR/USD|262=1-1568400189.195383|268=2|269=0|270=1.107470|271=100000|269=1|270=1.107490|271=1000000|10=225|
20190913-14:47:14.799501000 : 8=FIX.4.4|9=183|35=W|34=351|49=FIXUAT3-QUOTE.FORTEX.COM|52=20190913-14:47:14.709|56=T1DEMO_FIX_QS|55=EUR/USD|262=1-1568400189.195383|268=2|269=0|270=1.107430|271=100000|269=1|270=1.107460|271=100000|10=178|
20190913-14:47:15.307422000 : 8=FIX.4.4|9=184|35=W|34=352|49=FIXUAT3-QUOTE.FORTEX.COM|52=20190913-14:47:15.210|56=T1DEMO_FIX_QS|55=EUR/USD|262=1-1568400189.195383|268=2|269=0|270=1.107430|271=1000000|269=1|270=1.107460|271=100000|10=216|
20190913-14:47:15.771545000 : 8=FIX.4.4|9=183|35=W|34=353|49=FIXUAT3-QUOTE.FORTEX.COM|52=20190913-14:47:15.682|56=T1DEMO_FIX_QS|55=EUR/USD|262=1-1568400189.195383|268=2|269=0|270=1.107440|271=100000|269=1|270=1.107470|271=100000|10=183|
20190913-14:47:16.248988000 : 8=FIX.4.4|9=183|35=W|34=354|49=FIXUAT3-QUOTE.FORTEX.COM|52=20190913-14:47:16.160|56=T1DEMO_FIX_QS|55=EUR/USD|262=1-1568400189.195383|268=2|269=0|270=1.107430|271=100000|269=1|270=1.107460|271=100000|10=174|
20190913-14:47:17.853152000 : 8=FIX.4.4|9=184|35=W|34=355|49=FIXUAT3-QUOTE.FORTEX.COM|52=20190913-14:47:17.365|56=T1DEMO_FIX_QS|55=EUR/USD|262=1-1568400189.195383|268=2|269=0|270=1.107440|271=250000|269=1|270=1.107470|271=1000000|10=240|
20190913-14:47:17.920870000 : 8=FIX.4.4|9=184|35=W|34=356|49=FIXUAT3-QUOTE.FORTEX.COM|52=20190913-14:47:17.827|56=T1DEMO_FIX_QS|55=EUR/USD|262=1-1568400189.195383|268=2|269=0|270=1.107420|271=1000000|269=1|270=1.107450|271=100000|10=234|
20190913-14:47:18.379722000 : 8=FIX.4.4|9=183|35=W|34=357|49=FIXUAT3-QUOTE.FORTEX.COM|52=20190913-14:47:18.275|56=T1DEMO_FIX_QS|55=EUR/USD|262=1-1568400189.195383|268=2|269=0|270=1.107430|271=100000|269=1|270=1.107460|271=100000|10=186|
20190913-14:47:18.836018000 : 8=FIX.4.4|9=183|35=W|34=358|49=FIXUAT3-QUOTE.FORTEX.COM|52=20190913-14:47:18.738|56=T1DEMO_FIX_QS|55=EUR/USD|262=1-1568400189.195383|268=2|269=0|270=1.107430|271=250000|269=1|270=1.107460|271=100000|10=197|
20190913-14:47:19.318886000 : 8=FIX.4.4|9=184|35=W|34=359|49=FIXUAT3-QUOTE.FORTEX.COM|52=20190913-14:47:19.222|56=T1DEMO_FIX_QS|55=EUR/USD|262=1-1568400189.195383|268=2|269=0|270=1.107430|271=1000000|269=1|270=1.107460|271=250000|10=236|
20190913-14:47:19.783310000 : 8=FIX.4.4|9=184|35=W|34=360|49=FIXUAT3-QUOTE.FORTEX.COM|52=20190913-14:47:19.679|56=T1DEMO_FIX_QS|55=EUR/USD|262=1-1568400189.195383|268=2|269=0|270=1.107410|271=100000|269=1|270=1.107440|271=1000000|10=234|
20190913-14:47:20.211198000 : 8=FIX.4.4|9=184|35=W|34=361|49=FIXUAT3-QUOTE.FORTEX.COM|52=20190913-14:47:20.102|56=T1DEMO_FIX_QS|55=EUR/USD|262=1-1568400189.195383|268=2|269=0|270=1.107360|271=100000|269=1|270=1.107390|271=1000000|10=216|
20190913-14:47:20.607557000 : 8=FIX.4.4|9=184|35=W|34=362|49=FIXUAT3-QUOTE.FORTEX.COM|52=20190913-14:47:20.518|56=T1DEMO_FIX_QS|55=EUR/USD|262=1-1568400189.195383|268=2|269=0|270=1.107350|271=250000|269=1|270=1.107370|271=1000000|10=231|
20190913-14:47:21.059516000 : 8=FIX.4.4|9=184|35=W|34=363|49=FIXUAT3-QUOTE.FORTEX.COM|52=20190913-14:47:20.967|56=T1DEMO_FIX_QS|55=EUR/USD|262=1-1568400189.195383|268=2|269=0|270=1.107360|271=1000000|269=1|270=1.107390|271=500000|10=241|
20190913-14:47:21.511228000 : 8=FIX.4.4|9=184|35=W|34=364|49=FIXUAT3-QUOTE.FORTEX.COM|52=20190913-14:47:21.406|56=T1DEMO_FIX_QS|55=EUR/USD|262=1-1568400189.195383|268=2|269=0|270=1.107350|271=1000000|269=1|270=1.107380|271=100000|10=225|
20190913-14:47:21.947340000 : 8=FIX.4.4|9=183|35=W|34=365|49=FIXUAT3-QUOTE.FORTEX.COM|52=20190913-14:47:21.834|56=T1DEMO_FIX_QS|55=EUR/USD|262=1-1568400189.195383|268=2|269=0|270=1.107350|271=100000|269=1|270=1.107380|271=500000|10=186|
20190913-14:47:22.350992000 : 8=FIX.4.4|9=183|35=W|34=366|49=FIXUAT3-QUOTE.FORTEX.COM|52=20190913-14:47:22.251|56=T1DEMO_FIX_QS|55=EUR/USD|262=1-1568400189.195383|268=2|269=0|270=1.107350|271=100000|269=1|270=1.107380|271=100000|10=177|
20190913-14:47:22.818772000 : 8=FIX.4.4|9=184|35=W|34=367|49=FIXUAT3-QUOTE.FORTEX.COM|52=20190913-14:47:22.718|56=T1DEMO_FIX_QS|55=EUR/USD|262=1-1568400189.195383|268=2|269=0|270=1.107400|271=250000|269=1|270=1.107420|271=1000000|10=232|
20190913-14:47:23.299378000 : 8=FIX.4.4|9=184|35=W|34=368|49=FIXUAT3-QUOTE.FORTEX.COM|52=20190913-14:47:23.202|56=T1DEMO_FIX_QS|55=EUR/USD|262=1-1568400189.195383|268=2|269=0|270=1.107410|271=100000|269=1|270=1.107430|271=1000000|10=218|
20190913-14:47:24.636197000 : 8=FIX.4.4|9=183|35=W|34=369|49=FIXUAT3-QUOTE.FORTEX.COM|52=20190913-14:47:24.533|56=T1DEMO_FIX_QS|55=EUR/USD|262=1-1568400189.195383|268=2|269=0|270=1.107370|271=100000|269=1|270=1.107400|271=100000|10=180|
20190913-14:47:25.091290000 : 8=FIX.4.4|9=184|35=W|34=370|49=FIXUAT3-QUOTE.FORTEX.COM|52=20190913-14:47:25.000|56=T1DEMO_FIX_QS|55=EUR/USD|262=1-1568400189.195383|268=2|269=0|270=1.107370|271=1000000|269=1|270=1.107400|271=100000|10=211|
20190913-14:47:26.456344000 : 8=FIX.4.4|9=185|35=W|34=371|49=FIXUAT3-QUOTE.FORTEX.COM|52=20190913-14:47:26.348|56=T1DEMO_FIX_QS|55=EUR/USD|262=1-1568400189.195383|268=2|269=0|270=1.107340|271=1000000|269=1|270=1.107370|271=3000000|10=026|
20190913-14:47:26.875215000 : 8=FIX.4.4|9=184|35=W|34=372|49=FIXUAT3-QUOTE.FORTEX.COM|52=20190913-14:47:26.786|56=T1DEMO_FIX_QS|55=EUR/USD|262=1-1568400189.195383|268=2|269=0|270=1.107340|271=1000000|269=1|270=1.107370|271=100000|10=238|
20190913-14:47:27.331238000 : 8=FIX.4.4|9=183|35=W|34=373|49=FIXUAT3-QUOTE.FORTEX.COM|52=20190913-14:47:27.241|56=T1DEMO_FIX_QS|55=EUR/USD|262=1-1568400189.195383|268=2|269=0|270=1.107340|271=100000|269=1|270=1.107370|271=100000|10=177|
20190913-14:47:28.223439000 : 8=FIX.4.4|9=184|35=W|34=374|49=FIXUAT3-QUOTE.FORTEX.COM|52=20190913-14:47:28.122|56=T1DEMO_FIX_QS|55=EUR/USD|262=1-1568400189.195383|268=2|269=0|270=1.107320|271=100000|269=1|270=1.107350|271=1000000|10=222|
20190913-14:47:29.593929000 : 8=FIX.4.4|9=185|35=W|34=375|49=FIXUAT3-QUOTE.FORTEX.COM|52=20190913-14:47:29.001|56=T1DEMO_FIX_QS|55=EUR/USD|262=1-1568400189.195383|268=2|269=0|270=1.107300|271=1000000|269=1|270=1.107330|271=3000000|10=011|
20190913-14:47:29.595158000 : 8=FIX.4.4|9=184|35=W|34=376|49=FIXUAT3-QUOTE.FORTEX.COM|52=20190913-14:47:29.439|56=T1DEMO_FIX_QS|55=EUR/USD|262=1-1568400189.195383|268=2|269=0|270=1.107290|271=1000000|269=1|270=1.107320|271=100000|10=239|
20190913-14:47:30.413182000 : 8=FIX.4.4|9=183|35=W|34=377|49=FIXUAT3-QUOTE.FORTEX.COM|52=20190913-14:47:29.873|56=T1DEMO_FIX_QS|55=EUR/USD|262=1-1568400189.195383|268=2|269=0|270=1.107300|271=100000|269=1|270=1.107320|271=500000|10=189|
20190913-14:47:30.424432000 : 8=FIX.4.4|9=184|35=W|34=378|49=FIXUAT3-QUOTE.FORTEX.COM|52=20190913-14:47:30.310|56=T1DEMO_FIX_QS|55=EUR/USD|262=1-1568400189.195383|268=2|269=0|270=1.107310|271=1000000|269=1|270=1.107320|271=500000|10=218|
20190913-14:47:30.886861000 : 8=FIX.4.4|9=184|35=W|34=379|49=FIXUAT3-QUOTE.FORTEX.COM|52=20190913-14:47:30.780|56=T1DEMO_FIX_QS|55=EUR/USD|262=1-1568400189.195383|268=2|269=0|270=1.107350|271=1000000|269=1|270=1.107370|271=500000|10=239|
20190913-14:47:31.350871000 : 8=FIX.4.4|9=184|35=W|34=380|49=FIXUAT3-QUOTE.FORTEX.COM|52=20190913-14:47:31.245|56=T1DEMO_FIX_QS|55=EUR/USD|262=1-1568400189.195383|268=2|269=0|270=1.107350|271=1000000|269=1|270=1.107380|271=500000|10=229|
20190913-14:47:31.787329000 : 8=FIX.4.4|9=183|35=W|34=381|49=FIXUAT3-QUOTE.FORTEX.COM|52=20190913-14:47:31.682|56=T1DEMO_FIX_QS|55=EUR/USD|262=1-1568400189.195383|268=2|269=0|270=1.107360|271=100000|269=1|270=1.107380|271=500000|10=187|
20190913-14:47:32.267675000 : 8=FIX.4.4|9=184|35=W|34=382|49=FIXUAT3-QUOTE.FORTEX.COM|52=20190913-14:47:32.163|56=T1DEMO_FIX_QS|55=EUR/USD|262=1-1568400189.195383|268=2|269=0|270=1.107350|271=1000000|269=1|270=1.107380|271=100000|10=227|
20190913-14:47:32.703301000 : 8=FIX.4.4|9=183|35=W|34=383|49=FIXUAT3-QUOTE.FORTEX.COM|52=20190913-14:47:32.613|56=T1DEMO_FIX_QS|55=EUR/USD|262=1-1568400189.195383|268=2|269=0|270=1.107350|271=100000|269=1|270=1.107380|271=100000|10=179|
20190913-14:47:33.160435000 : 8=FIX.4.4|9=184|35=W|34=384|49=FIXUAT3-QUOTE.FORTEX.COM|52=20190913-14:47:33.061|56=T1DEMO_FIX_QS|55=EUR/USD|262=1-1568400189.195383|268=2|269=0|270=1.107350|271=1000000|269=1|270=1.107380|271=100000|10=227|
20190913-14:47:33.607271000 : 8=FIX.4.4|9=183|35=W|34=385|49=FIXUAT3-QUOTE.FORTEX.COM|52=20190913-14:47:33.518|56=T1DEMO_FIX_QS|55=EUR/USD|262=1-1568400189.195383|268=2|269=0|270=1.107350|271=100000|269=1|270=1.107380|271=100000|10=186|
20190913-14:47:34.066600000 : 8=FIX.4.4|9=184|35=W|34=386|49=FIXUAT3-QUOTE.FORTEX.COM|52=20190913-14:47:33.975|56=T1DEMO_FIX_QS|55=EUR/USD|262=1-1568400189.195383|268=2|269=0|270=1.107350|271=1000000|269=1|270=1.107380|271=100000|10=243|
20190913-14:47:34.515297000 : 8=FIX.4.4|9=183|35=W|34=387|49=FIXUAT3-QUOTE.FORTEX.COM|52=20190913-14:47:34.412|56=T1DEMO_FIX_QS|55=EUR/USD|262=1-1568400189.195383|268=2|269=0|270=1.107350|271=100000|269=1|270=1.107380|271=100000|10=182|
20190913-14:47:35.857983000 : 8=FIX.4.4|9=183|35=W|34=388|49=FIXUAT3-QUOTE.FORTEX.COM|52=20190913-14:47:35.767|56=T1DEMO_FIX_QS|55=EUR/USD|262=1-1568400189.195383|268=2|269=0|270=1.107360|271=250000|269=1|270=1.107380|271=500000|10=208|
20190913-14:47:39.160877000 : 8=FIX.4.4|9=81|35=0|49=T1DEMO_FIX_QS|56=FIXUAT3-QUOTE.FORTEX.COM|34=11|52=20190913-14:47:39.087|10=223|
20190913-14:47:39.161033000 : 8=FIX.4.4|9=183|35=W|34=389|49=FIXUAT3-QUOTE.FORTEX.COM|52=20190913-14:47:39.000|56=T1DEMO_FIX_QS|55=EUR/USD|262=1-1568400189.195383|268=2|269=0|270=1.107390|271=100000|269=1|270=1.107400|271=500000|10=183|
20190913-14:47:39.571062000 : 8=FIX.4.4|9=184|35=W|34=390|49=FIXUAT3-QUOTE.FORTEX.COM|52=20190913-14:47:39.470|56=T1DEMO_FIX_QS|55=EUR/USD|262=1-1568400189.195383|268=2|269=0|270=1.107370|271=100000|269=1|270=1.107400|271=1000000|10=229|
20190913-14:47:40.007097000 : 8=FIX.4.4|9=184|35=W|34=391|49=FIXUAT3-QUOTE.FORTEX.COM|52=20190913-14:47:39.904|56=T1DEMO_FIX_QS|55=EUR/USD|262=1-1568400189.195383|268=2|269=0|270=1.107360|271=1000000|269=1|270=1.107390|271=100000|10=239|
20190913-14:47:40.964860000 : 8=FIX.4.4|9=185|35=W|34=392|49=FIXUAT3-QUOTE.FORTEX.COM|52=20190913-14:47:40.872|56=T1DEMO_FIX_QS|55=EUR/USD|262=1-1568400189.195383|268=2|269=0|270=1.107360|271=1000000|269=1|270=1.107390|271=1000000|10=029|
20190913-14:47:42.360303000 : 8=FIX.4.4|9=184|35=W|34=393|49=FIXUAT3-QUOTE.FORTEX.COM|52=20190913-14:47:42.252|56=T1DEMO_FIX_QS|55=EUR/USD|262=1-1568400189.195383|268=2|269=0|270=1.107380|271=100000|269=1|270=1.107400|271=1000000|10=225|
20190913-14:47:45.186743000 : 8=FIX.4.4|9=185|35=W|34=394|49=FIXUAT3-QUOTE.FORTEX.COM|52=20190913-14:47:45.094|56=T1DEMO_FIX_QS|55=EUR/USD|262=1-1568400189.195383|268=2|269=0|270=1.107380|271=1000000|269=1|270=1.107410|271=1000000|10=027|
20190913-14:47:45.643619000 : 8=FIX.4.4|9=184|35=W|34=395|49=FIXUAT3-QUOTE.FORTEX.COM|52=20190913-14:47:45.554|56=T1DEMO_FIX_QS|55=EUR/USD|262=1-1568400189.195383|268=2|269=0|270=1.107390|271=100000|269=1|270=1.107410|271=1000000|10=237|
20190913-14:47:46.968645000 : 8=FIX.4.4|9=185|35=W|34=396|49=FIXUAT3-QUOTE.FORTEX.COM|52=20190913-14:47:46.468|56=T1DEMO_FIX_QS|55=EUR/USD|262=1-1568400189.195383|268=2|269=0|270=1.107370|271=1000000|269=1|270=1.107400|271=1000000|10=033|
20190913-14:47:47.024021000 : 8=FIX.4.4|9=184|35=W|34=397|49=FIXUAT3-QUOTE.FORTEX.COM|52=20190913-14:47:46.923|56=T1DEMO_FIX_QS|55=EUR/USD|262=1-1568400189.195383|268=2|269=0|270=1.107370|271=1000000|269=1|270=1.107390|271=100000|10=245|
20190913-14:47:48.810464000 : 8=FIX.4.4|9=183|35=W|34=398|49=FIXUAT3-QUOTE.FORTEX.COM|52=20190913-14:47:48.716|56=T1DEMO_FIX_QS|55=EUR/USD|262=1-1568400189.195383|268=2|269=0|270=1.107360|271=100000|269=1|270=1.107390|271=100000|10=198|
20190913-14:47:49.276656000 : 8=FIX.4.4|9=184|35=W|34=399|49=FIXUAT3-QUOTE.FORTEX.COM|52=20190913-14:47:49.175|56=T1DEMO_FIX_QS|55=EUR/USD|262=1-1568400189.195383|268=2|269=0|270=1.107340|271=100000|269=1|270=1.107370|271=1000000|10=244|
20190913-14:47:49.695247000 : 8=FIX.4.4|9=185|35=W|34=400|49=FIXUAT3-QUOTE.FORTEX.COM|52=20190913-14:47:49.605|56=T1DEMO_FIX_QS|55=EUR/USD|262=1-1568400189.195383|268=2|269=0|270=1.107340|271=1000000|269=1|270=1.107370|271=1000000|10=018|
20190913-14:47:50.913365000 : 8=FIX.4.4|9=183|35=W|34=401|49=FIXUAT3-QUOTE.FORTEX.COM|52=20190913-14:47:50.420|56=T1DEMO_FIX_QS|55=EUR/USD|262=1-1568400189.195383|268=2|269=0|270=1.107350|271=100000|269=1|270=1.107380|271=100000|10=166|
20190913-14:47:51.373837000 : 8=FIX.4.4|9=184|35=W|34=402|49=FIXUAT3-QUOTE.FORTEX.COM|52=20190913-14:47:51.283|56=T1DEMO_FIX_QS|55=EUR/USD|262=1-1568400189.195383|268=2|269=0|270=1.107370|271=100000|269=1|270=1.107390|271=1000000|10=227|
20190913-14:47:52.627136000 : 8=FIX.4.4|9=184|35=W|34=403|49=FIXUAT3-QUOTE.FORTEX.COM|52=20190913-14:47:52.145|56=T1DEMO_FIX_QS|55=EUR/USD|262=1-1568400189.195383|268=2|269=0|270=1.107360|271=100000|269=1|270=1.107380|271=1000000|10=224|
20190913-14:47:52.660968000 : 8=FIX.4.4|9=184|35=W|34=404|49=FIXUAT3-QUOTE.FORTEX.COM|52=20190913-14:47:52.571|56=T1DEMO_FIX_QS|55=EUR/USD|262=1-1568400189.195383|268=2|269=0|270=1.107340|271=1000000|269=1|270=1.107370|271=100000|10=225|
20190913-14:47:53.591092000 : 8=FIX.4.4|9=183|35=W|34=405|49=FIXUAT3-QUOTE.FORTEX.COM|52=20190913-14:47:53.488|56=T1DEMO_FIX_QS|55=EUR/USD|262=1-1568400189.195383|268=2|269=0|270=1.107340|271=100000|269=1|270=1.107370|271=100000|10=185|
20190913-14:47:55.893602000 : 8=FIX.4.4|9=184|35=W|34=406|49=FIXUAT3-QUOTE.FORTEX.COM|52=20190913-14:47:55.730|56=T1DEMO_FIX_QS|55=EUR/USD|262=1-1568400189.195383|268=2|269=0|270=1.107350|271=100000|269=1|270=1.107380|271=1000000|10=229|
20190913-14:47:57.163931000 : 8=FIX.4.4|9=183|35=W|34=407|49=FIXUAT3-QUOTE.FORTEX.COM|52=20190913-14:47:57.069|56=T1DEMO_FIX_QS|55=EUR/USD|262=1-1568400189.195383|268=2|269=0|270=1.107340|271=250000|269=1|270=1.107370|271=100000|10=192|
20190913-14:47:57.582634000 : 8=FIX.4.4|9=183|35=W|34=408|49=FIXUAT3-QUOTE.FORTEX.COM|52=20190913-14:47:57.493|56=T1DEMO_FIX_QS|55=EUR/USD|262=1-1568400189.195383|268=2|269=0|270=1.107340|271=100000|269=1|270=1.107370|271=100000|10=188|
20190913-14:47:58.438062000 : 8=FIX.4.4|9=184|35=W|34=409|49=FIXUAT3-QUOTE.FORTEX.COM|52=20190913-14:47:58.348|56=T1DEMO_FIX_QS|55=EUR/USD|262=1-1568400189.195383|268=2|269=0|270=1.107340|271=1000000|269=1|270=1.107370|271=100000|10=238|
20190913-14:48:00.686470000 : 8=FIX.4.4|9=183|35=W|34=410|49=FIXUAT3-QUOTE.FORTEX.COM|52=20190913-14:48:00.596|56=T1DEMO_FIX_QS|55=EUR/USD|262=1-1568400189.195383|268=2|269=0|270=1.107340|271=100000|269=1|270=1.107370|271=100000|10=174|
20190913-14:48:02.921024000 : 8=FIX.4.4|9=184|35=W|34=411|49=FIXUAT3-QUOTE.FORTEX.COM|52=20190913-14:48:02.818|56=T1DEMO_FIX_QS|55=EUR/USD|262=1-1568400189.195383|268=2|269=0|270=1.107350|271=1000000|269=1|270=1.107380|271=100000|10=225|
20190913-14:48:07.415663000 : 8=FIX.4.4|9=184|35=W|34=412|49=FIXUAT3-QUOTE.FORTEX.COM|52=20190913-14:48:07.312|56=T1DEMO_FIX_QS|55=EUR/USD|262=1-1568400189.195383|268=2|269=0|270=1.107350|271=100000|269=1|270=1.107380|271=1000000|10=220|
20190913-14:48:07.866833000 : 8=FIX.4.4|9=184|35=W|34=413|49=FIXUAT3-QUOTE.FORTEX.COM|52=20190913-14:48:07.757|56=T1DEMO_FIX_QS|55=EUR/USD|262=1-1568400189.195383|268=2|269=0|270=1.107330|271=1000000|269=1|270=1.107360|271=100000|10=230|
20190913-14:48:09.100055000 : 8=FIX.4.4|9=81|35=0|49=T1DEMO_FIX_QS|56=FIXUAT3-QUOTE.FORTEX.COM|34=12|52=20190913-14:48:09.096|10=222|
